{
	"contracts/FundMe.sol": {
		"FundMe": {
			"abi": [
				{
					"inputs": [],
					"stateMutability": "nonpayable",
					"type": "constructor"
				},
				{
					"inputs": [
						{
							"internalType": "address",
							"name": "founder",
							"type": "address"
						}
					],
					"name": "adressToAmountFounded",
					"outputs": [
						{
							"internalType": "uint256",
							"name": "amountFounded",
							"type": "uint256"
						}
					],
					"stateMutability": "view",
					"type": "function"
				},
				{
					"inputs": [
						{
							"internalType": "uint256",
							"name": "",
							"type": "uint256"
						}
					],
					"name": "founders",
					"outputs": [
						{
							"internalType": "address",
							"name": "",
							"type": "address"
						}
					],
					"stateMutability": "view",
					"type": "function"
				},
				{
					"inputs": [],
					"name": "fund",
					"outputs": [],
					"stateMutability": "payable",
					"type": "function"
				},
				{
					"inputs": [],
					"name": "minimumUsd",
					"outputs": [
						{
							"internalType": "uint256",
							"name": "",
							"type": "uint256"
						}
					],
					"stateMutability": "view",
					"type": "function"
				},
				{
					"inputs": [],
					"name": "owner",
					"outputs": [
						{
							"internalType": "address",
							"name": "",
							"type": "address"
						}
					],
					"stateMutability": "view",
					"type": "function"
				},
				{
					"inputs": [],
					"name": "withdraw",
					"outputs": [],
					"stateMutability": "nonpayable",
					"type": "function"
				}
			],
			"devdoc": {
				"kind": "dev",
				"methods": {},
				"version": 1
			},
			"evm": {
				"assembly": "    /* \"contracts/FundMe.sol\":113:1949  contract FundMe {... */\n  mstore(0x40, 0x80)\n    /* \"contracts/FundMe.sol\":239:243  5e18 */\n  0x4563918244f40000\n    /* \"contracts/FundMe.sol\":211:243  uint256 public minimumUsd = 5e18 */\n  0x00\n  sstore\n    /* \"contracts/FundMe.sol\":392:441  constructor() {... */\n  callvalue\n  dup1\n  iszero\n  tag_1\n  jumpi\n  0x00\n  dup1\n  revert\ntag_1:\n  pop\n    /* \"contracts/FundMe.sol\":424:434  msg.sender */\n  caller\n    /* \"contracts/FundMe.sol\":416:421  owner */\n  0x03\n  0x00\n    /* \"contracts/FundMe.sol\":416:434  owner = msg.sender */\n  0x0100\n  exp\n  dup2\n  sload\n  dup2\n  0xffffffffffffffffffffffffffffffffffffffff\n  mul\n  not\n  and\n  swap1\n  dup4\n  0xffffffffffffffffffffffffffffffffffffffff\n  and\n  mul\n  or\n  swap1\n  sstore\n  pop\n    /* \"contracts/FundMe.sol\":113:1949  contract FundMe {... */\n  dataSize(sub_0)\n  dup1\n  dataOffset(sub_0)\n  0x00\n  codecopy\n  0x00\n  return\nstop\n\nsub_0: assembly {\n        /* \"contracts/FundMe.sol\":113:1949  contract FundMe {... */\n      mstore(0x40, 0x80)\n      jumpi(tag_1, lt(calldatasize, 0x04))\n      shr(0xe0, calldataload(0x00))\n      dup1\n      0x098de820\n      eq\n      tag_2\n      jumpi\n      dup1\n      0x3ccfd60b\n      eq\n      tag_3\n      jumpi\n      dup1\n      0x8da5cb5b\n      eq\n      tag_4\n      jumpi\n      dup1\n      0xa42d06ac\n      eq\n      tag_5\n      jumpi\n      dup1\n      0xb60d4288\n      eq\n      tag_6\n      jumpi\n      dup1\n      0xd8e75f62\n      eq\n      tag_7\n      jumpi\n    tag_1:\n      0x00\n      dup1\n      revert\n        /* \"contracts/FundMe.sol\":211:243  uint256 public minimumUsd = 5e18 */\n    tag_2:\n      callvalue\n      dup1\n      iszero\n      tag_8\n      jumpi\n      0x00\n      dup1\n      revert\n    tag_8:\n      pop\n      tag_9\n      tag_10\n      jump\t// in\n    tag_9:\n      mload(0x40)\n      tag_11\n      swap2\n      swap1\n      tag_12\n      jump\t// in\n    tag_11:\n      mload(0x40)\n      dup1\n      swap2\n      sub\n      swap1\n      return\n        /* \"contracts/FundMe.sol\":1120:1881  function withdraw() public onlyOwner {... */\n    tag_3:\n      callvalue\n      dup1\n      iszero\n      tag_13\n      jumpi\n      0x00\n      dup1\n      revert\n    tag_13:\n      pop\n      tag_14\n      tag_15\n      jump\t// in\n    tag_14:\n      stop\n        /* \"contracts/FundMe.sol\":365:385  address public owner */\n    tag_4:\n      callvalue\n      dup1\n      iszero\n      tag_16\n      jumpi\n      0x00\n      dup1\n      revert\n    tag_16:\n      pop\n      tag_17\n      tag_18\n      jump\t// in\n    tag_17:\n      mload(0x40)\n      tag_19\n      swap2\n      swap1\n      tag_20\n      jump\t// in\n    tag_19:\n      mload(0x40)\n      dup1\n      swap2\n      sub\n      swap1\n      return\n        /* \"contracts/FundMe.sol\":280:359  mapping (address founder => uint256 amountFounded) public adressToAmountFounded */\n    tag_5:\n      callvalue\n      dup1\n      iszero\n      tag_21\n      jumpi\n      0x00\n      dup1\n      revert\n    tag_21:\n      pop\n      tag_22\n      0x04\n      dup1\n      calldatasize\n      sub\n      dup2\n      add\n      swap1\n      tag_23\n      swap2\n      swap1\n      tag_24\n      jump\t// in\n    tag_23:\n      tag_25\n      jump\t// in\n    tag_22:\n      mload(0x40)\n      tag_26\n      swap2\n      swap1\n      tag_12\n      jump\t// in\n    tag_26:\n      mload(0x40)\n      dup1\n      swap2\n      sub\n      swap1\n      return\n        /* \"contracts/FundMe.sol\":447:981  function fund() public payable {... */\n    tag_6:\n      tag_27\n      tag_28\n      jump\t// in\n    tag_27:\n      stop\n        /* \"contracts/FundMe.sol\":249:274  address[] public founders */\n    tag_7:\n      callvalue\n      dup1\n      iszero\n      tag_29\n      jumpi\n      0x00\n      dup1\n      revert\n    tag_29:\n      pop\n      tag_30\n      0x04\n      dup1\n      calldatasize\n      sub\n      dup2\n      add\n      swap1\n      tag_31\n      swap2\n      swap1\n      tag_32\n      jump\t// in\n    tag_31:\n      tag_33\n      jump\t// in\n    tag_30:\n      mload(0x40)\n      tag_34\n      swap2\n      swap1\n      tag_20\n      jump\t// in\n    tag_34:\n      mload(0x40)\n      dup1\n      swap2\n      sub\n      swap1\n      return\n        /* \"contracts/FundMe.sol\":211:243  uint256 public minimumUsd = 5e18 */\n    tag_10:\n      sload(0x00)\n      dup2\n      jump\t// out\n        /* \"contracts/FundMe.sol\":1120:1881  function withdraw() public onlyOwner {... */\n    tag_15:\n        /* \"contracts/FundMe.sol\":1040:1045  owner */\n      0x03\n      0x00\n      swap1\n      sload\n      swap1\n      0x0100\n      exp\n      swap1\n      div\n      0xffffffffffffffffffffffffffffffffffffffff\n      and\n        /* \"contracts/FundMe.sol\":1026:1045  msg.sender == owner */\n      0xffffffffffffffffffffffffffffffffffffffff\n      and\n        /* \"contracts/FundMe.sol\":1026:1036  msg.sender */\n      caller\n        /* \"contracts/FundMe.sol\":1026:1045  msg.sender == owner */\n      0xffffffffffffffffffffffffffffffffffffffff\n      and\n      eq\n        /* \"contracts/FundMe.sol\":1018:1067  require(msg.sender == owner, \"Must be the owner\") */\n      tag_36\n      jumpi\n      mload(0x40)\n      0x08c379a000000000000000000000000000000000000000000000000000000000\n      dup2\n      mstore\n      0x04\n      add\n      tag_37\n      swap1\n      tag_38\n      jump\t// in\n    tag_37:\n      mload(0x40)\n      dup1\n      swap2\n      sub\n      swap1\n      revert\n    tag_36:\n        /* \"contracts/FundMe.sol\":1277:1286  uint256 i */\n      0x00\n        /* \"contracts/FundMe.sol\":1273:1434  for(uint256 i = 0; i < founders.length; i++){... */\n    tag_40:\n        /* \"contracts/FundMe.sol\":1296:1304  founders */\n      0x01\n        /* \"contracts/FundMe.sol\":1296:1311  founders.length */\n      dup1\n      sload\n      swap1\n      pop\n        /* \"contracts/FundMe.sol\":1292:1293  i */\n      dup2\n        /* \"contracts/FundMe.sol\":1292:1311  i < founders.length */\n      lt\n        /* \"contracts/FundMe.sol\":1273:1434  for(uint256 i = 0; i < founders.length; i++){... */\n      iszero\n      tag_41\n      jumpi\n        /* \"contracts/FundMe.sol\":1331:1346  address founder */\n      0x00\n        /* \"contracts/FundMe.sol\":1349:1357  founders */\n      0x01\n        /* \"contracts/FundMe.sol\":1358:1359  i */\n      dup3\n        /* \"contracts/FundMe.sol\":1349:1360  founders[i] */\n      dup2\n      sload\n      dup2\n      lt\n      tag_43\n      jumpi\n      tag_44\n      tag_45\n      jump\t// in\n    tag_44:\n    tag_43:\n      swap1\n      0x00\n      mstore\n      keccak256(0x00, 0x20)\n      add\n      0x00\n      swap1\n      sload\n      swap1\n      0x0100\n      exp\n      swap1\n      div\n      0xffffffffffffffffffffffffffffffffffffffff\n      and\n        /* \"contracts/FundMe.sol\":1331:1360  address founder = founders[i] */\n      swap1\n      pop\n        /* \"contracts/FundMe.sol\":1407:1408  0 */\n      0x00\n        /* \"contracts/FundMe.sol\":1374:1395  adressToAmountFounded */\n      0x02\n        /* \"contracts/FundMe.sol\":1374:1404  adressToAmountFounded[founder] */\n      0x00\n        /* \"contracts/FundMe.sol\":1396:1403  founder */\n      dup4\n        /* \"contracts/FundMe.sol\":1374:1404  adressToAmountFounded[founder] */\n      0xffffffffffffffffffffffffffffffffffffffff\n      and\n      0xffffffffffffffffffffffffffffffffffffffff\n      and\n      dup2\n      mstore\n      0x20\n      add\n      swap1\n      dup2\n      mstore\n      0x20\n      add\n      0x00\n      keccak256\n        /* \"contracts/FundMe.sol\":1374:1408  adressToAmountFounded[founder] = 0 */\n      dup2\n      swap1\n      sstore\n      pop\n        /* \"contracts/FundMe.sol\":1317:1434  {... */\n      pop\n        /* \"contracts/FundMe.sol\":1313:1316  i++ */\n      dup1\n      dup1\n      0x01\n      add\n      swap2\n      pop\n      pop\n        /* \"contracts/FundMe.sol\":1273:1434  for(uint256 i = 0; i < founders.length; i++){... */\n      jump(tag_40)\n    tag_41:\n      pop\n        /* \"contracts/FundMe.sol\":1468:1469  0 */\n      0x00\n        /* \"contracts/FundMe.sol\":1454:1470  new address[](0) */\n      0xffffffffffffffff\n      dup2\n      gt\n      iszero\n      tag_47\n      jumpi\n      tag_48\n      tag_49\n      jump\t// in\n    tag_48:\n    tag_47:\n      mload(0x40)\n      swap1\n      dup1\n      dup3\n      mstore\n      dup1\n      0x20\n      mul\n      0x20\n      add\n      dup3\n      add\n      0x40\n      mstore\n      dup1\n      iszero\n      tag_50\n      jumpi\n      dup2\n      0x20\n      add\n      0x20\n      dup3\n      mul\n      dup1\n      calldatasize\n      dup4\n      calldatacopy\n      dup1\n      dup3\n      add\n      swap2\n      pop\n      pop\n      swap1\n      pop\n    tag_50:\n      pop\n        /* \"contracts/FundMe.sol\":1443:1451  founders */\n      0x01\n        /* \"contracts/FundMe.sol\":1443:1470  founders = new address[](0) */\n      swap1\n      dup1\n      mload\n      swap1\n      0x20\n      add\n      swap1\n      tag_51\n      swap3\n      swap2\n      swap1\n      tag_52\n      jump\t// in\n    tag_51:\n      pop\n        /* \"contracts/FundMe.sol\":1751:1766  bool callSucced */\n      0x00\n        /* \"contracts/FundMe.sol\":1780:1790  msg.sender */\n      caller\n        /* \"contracts/FundMe.sol\":1771:1796  payable (msg.sender).call */\n      0xffffffffffffffffffffffffffffffffffffffff\n      and\n        /* \"contracts/FundMe.sol\":1804:1825  address(this).balance */\n      selfbalance\n        /* \"contracts/FundMe.sol\":1771:1830  payable (msg.sender).call{value: address(this).balance}(\"\") */\n      mload(0x40)\n      tag_53\n      swap1\n      tag_54\n      jump\t// in\n    tag_53:\n      0x00\n      mload(0x40)\n      dup1\n      dup4\n      sub\n      dup2\n      dup6\n      dup8\n      gas\n      call\n      swap3\n      pop\n      pop\n      pop\n      returndatasize\n      dup1\n      0x00\n      dup2\n      eq\n      tag_57\n      jumpi\n      mload(0x40)\n      swap2\n      pop\n      and(add(returndatasize, 0x3f), not(0x1f))\n      dup3\n      add\n      0x40\n      mstore\n      returndatasize\n      dup3\n      mstore\n      returndatasize\n      0x00\n      0x20\n      dup5\n      add\n      returndatacopy\n      jump(tag_56)\n    tag_57:\n      0x60\n      swap2\n      pop\n    tag_56:\n      pop\n        /* \"contracts/FundMe.sol\":1750:1830  (bool callSucced,) = payable (msg.sender).call{value: address(this).balance}(\"\") */\n      pop\n      swap1\n      pop\n        /* \"contracts/FundMe.sol\":1848:1858  callSucced */\n      dup1\n        /* \"contracts/FundMe.sol\":1840:1874  require(callSucced, \"call failed\") */\n      tag_58\n      jumpi\n      mload(0x40)\n      0x08c379a000000000000000000000000000000000000000000000000000000000\n      dup2\n      mstore\n      0x04\n      add\n      tag_59\n      swap1\n      tag_60\n      jump\t// in\n    tag_59:\n      mload(0x40)\n      dup1\n      swap2\n      sub\n      swap1\n      revert\n    tag_58:\n        /* \"contracts/FundMe.sol\":1157:1881  {... */\n      pop\n        /* \"contracts/FundMe.sol\":1120:1881  function withdraw() public onlyOwner {... */\n      jump\t// out\n        /* \"contracts/FundMe.sol\":365:385  address public owner */\n    tag_18:\n      0x03\n      0x00\n      swap1\n      sload\n      swap1\n      0x0100\n      exp\n      swap1\n      div\n      0xffffffffffffffffffffffffffffffffffffffff\n      and\n      dup2\n      jump\t// out\n        /* \"contracts/FundMe.sol\":280:359  mapping (address founder => uint256 amountFounded) public adressToAmountFounded */\n    tag_25:\n      mstore(0x20, 0x02)\n      dup1\n      0x00\n      mstore\n      keccak256(0x00, 0x40)\n      0x00\n      swap2\n      pop\n      swap1\n      pop\n      sload\n      dup2\n      jump\t// out\n        /* \"contracts/FundMe.sol\":447:981  function fund() public payable {... */\n    tag_28:\n        /* \"contracts/FundMe.sol\":595:605  minimumUsd */\n      sload(0x00)\n        /* \"contracts/FundMe.sol\":562:591  msg.value.getConversionRate() */\n      tag_62\n        /* \"contracts/FundMe.sol\":562:571  msg.value */\n      callvalue\n        /* \"contracts/FundMe.sol\":562:589  msg.value.getConversionRate */\n      tag_63\n        /* \"contracts/FundMe.sol\":562:591  msg.value.getConversionRate() */\n      jump\t// in\n    tag_62:\n        /* \"contracts/FundMe.sol\":562:605  msg.value.getConversionRate() >= minimumUsd */\n      lt\n      iszero\n        /* \"contracts/FundMe.sol\":554:635  require(msg.value.getConversionRate() >= minimumUsd, \"Didn't send ennough ether\") */\n      tag_64\n      jumpi\n      mload(0x40)\n      0x08c379a000000000000000000000000000000000000000000000000000000000\n      dup2\n      mstore\n      0x04\n      add\n      tag_65\n      swap1\n      tag_66\n      jump\t// in\n    tag_65:\n      mload(0x40)\n      dup1\n      swap2\n      sub\n      swap1\n      revert\n    tag_64:\n        /* \"contracts/FundMe.sol\":785:793  founders */\n      0x01\n        /* \"contracts/FundMe.sol\":799:809  msg.sender */\n      caller\n        /* \"contracts/FundMe.sol\":785:810  founders.push(msg.sender) */\n      swap1\n      dup1\n      0x01\n      dup2\n      sload\n      add\n      dup1\n      dup3\n      sstore\n      dup1\n      swap2\n      pop\n      pop\n      0x01\n      swap1\n      sub\n      swap1\n      0x00\n      mstore\n      keccak256(0x00, 0x20)\n      add\n      0x00\n      swap1\n      swap2\n      swap1\n      swap2\n      swap1\n      swap2\n      0x0100\n      exp\n      dup2\n      sload\n      dup2\n      0xffffffffffffffffffffffffffffffffffffffff\n      mul\n      not\n      and\n      swap1\n      dup4\n      0xffffffffffffffffffffffffffffffffffffffff\n      and\n      mul\n      or\n      swap1\n      sstore\n      pop\n        /* \"contracts/FundMe.sol\":950:959  msg.value */\n      callvalue\n        /* \"contracts/FundMe.sol\":913:934  adressToAmountFounded */\n      0x02\n        /* \"contracts/FundMe.sol\":913:946  adressToAmountFounded[msg.sender] */\n      0x00\n        /* \"contracts/FundMe.sol\":935:945  msg.sender */\n      caller\n        /* \"contracts/FundMe.sol\":913:946  adressToAmountFounded[msg.sender] */\n      0xffffffffffffffffffffffffffffffffffffffff\n      and\n      0xffffffffffffffffffffffffffffffffffffffff\n      and\n      dup2\n      mstore\n      0x20\n      add\n      swap1\n      dup2\n      mstore\n      0x20\n      add\n      0x00\n      keccak256\n      0x00\n        /* \"contracts/FundMe.sol\":913:959  adressToAmountFounded[msg.sender] += msg.value */\n      dup3\n      dup3\n      sload\n      tag_68\n      swap2\n      swap1\n      tag_69\n      jump\t// in\n    tag_68:\n      swap3\n      pop\n      pop\n      dup2\n      swap1\n      sstore\n      pop\n        /* \"contracts/FundMe.sol\":447:981  function fund() public payable {... */\n      jump\t// out\n        /* \"contracts/FundMe.sol\":249:274  address[] public founders */\n    tag_33:\n      0x01\n      dup2\n      dup2\n      sload\n      dup2\n      lt\n      tag_70\n      jumpi\n      0x00\n      dup1\n      revert\n    tag_70:\n      swap1\n      0x00\n      mstore\n      keccak256(0x00, 0x20)\n      add\n      0x00\n      swap2\n      pop\n      sload\n      swap1\n      0x0100\n      exp\n      swap1\n      div\n      0xffffffffffffffffffffffffffffffffffffffff\n      and\n      dup2\n      jump\t// out\n        /* \"contracts/PriceConverter.sol\":474:692  function getConversionRate(uint256 ethAmount) internal view returns (uint256) {... */\n    tag_63:\n        /* \"contracts/PriceConverter.sol\":543:550  uint256 */\n      0x00\n        /* \"contracts/PriceConverter.sol\":562:578  uint256 ethPrice */\n      dup1\n        /* \"contracts/PriceConverter.sol\":581:591  getPrice() */\n      tag_73\n        /* \"contracts/PriceConverter.sol\":581:589  getPrice */\n      tag_74\n        /* \"contracts/PriceConverter.sol\":581:591  getPrice() */\n      jump\t// in\n    tag_73:\n        /* \"contracts/PriceConverter.sol\":562:591  uint256 ethPrice = getPrice() */\n      swap1\n      pop\n        /* \"contracts/PriceConverter.sol\":601:623  uint256 ethAmountInUsd */\n      0x00\n        /* \"contracts/PriceConverter.sol\":649:653  1e18 */\n      0x0de0b6b3a7640000\n        /* \"contracts/PriceConverter.sol\":638:647  ethAmount */\n      dup5\n        /* \"contracts/PriceConverter.sol\":627:635  ethPrice */\n      dup4\n        /* \"contracts/PriceConverter.sol\":627:647  ethPrice * ethAmount */\n      tag_75\n      swap2\n      swap1\n      tag_76\n      jump\t// in\n    tag_75:\n        /* \"contracts/PriceConverter.sol\":626:653  (ethPrice * ethAmount)/1e18 */\n      tag_77\n      swap2\n      swap1\n      tag_78\n      jump\t// in\n    tag_77:\n        /* \"contracts/PriceConverter.sol\":601:653  uint256 ethAmountInUsd = (ethPrice * ethAmount)/1e18 */\n      swap1\n      pop\n        /* \"contracts/PriceConverter.sol\":671:685  ethAmountInUsd */\n      dup1\n        /* \"contracts/PriceConverter.sol\":664:685  return ethAmountInUsd */\n      swap3\n      pop\n      pop\n      pop\n        /* \"contracts/PriceConverter.sol\":474:692  function getConversionRate(uint256 ethAmount) internal view returns (uint256) {... */\n      swap2\n      swap1\n      pop\n      jump\t// out\n        /* \"contracts/PriceConverter.sol\":202:468  function getPrice() internal view returns (uint256) {... */\n    tag_74:\n        /* \"contracts/PriceConverter.sol\":245:252  uint256 */\n      0x00\n        /* \"contracts/PriceConverter.sol\":264:295  AggregatorV3Interface priceFeed */\n      dup1\n        /* \"contracts/PriceConverter.sol\":320:362  0x5f4eC3Df9cbd43714FE2740f5E3616155c5b8419 */\n      0x5f4ec3df9cbd43714fe2740f5e3616155c5b8419\n        /* \"contracts/PriceConverter.sol\":264:363  AggregatorV3Interface priceFeed = AggregatorV3Interface(0x5f4eC3Df9cbd43714FE2740f5E3616155c5b8419) */\n      swap1\n      pop\n        /* \"contracts/PriceConverter.sol\":376:388  int256 price */\n      0x00\n        /* \"contracts/PriceConverter.sol\":395:404  priceFeed */\n      dup2\n        /* \"contracts/PriceConverter.sol\":395:420  priceFeed.latestRoundData */\n      0xffffffffffffffffffffffffffffffffffffffff\n      and\n      0xfeaf968c\n        /* \"contracts/PriceConverter.sol\":395:422  priceFeed.latestRoundData() */\n      mload(0x40)\n      dup2\n      0xffffffff\n      and\n      0xe0\n      shl\n      dup2\n      mstore\n      0x04\n      add\n      0xa0\n      mload(0x40)\n      dup1\n      dup4\n      sub\n      dup2\n      dup7\n      gas\n      staticcall\n      iszero\n      dup1\n      iszero\n      tag_81\n      jumpi\n      returndatasize\n      0x00\n      dup1\n      returndatacopy\n      revert(0x00, returndatasize)\n    tag_81:\n      pop\n      pop\n      pop\n      pop\n      mload(0x40)\n      returndatasize\n      not(0x1f)\n      0x1f\n      dup3\n      add\n      and\n      dup3\n      add\n      dup1\n      0x40\n      mstore\n      pop\n      dup2\n      add\n      swap1\n      tag_82\n      swap2\n      swap1\n      tag_83\n      jump\t// in\n    tag_82:\n        /* \"contracts/PriceConverter.sol\":373:422  (, int256 price,,,) = priceFeed.latestRoundData() */\n      pop\n      pop\n      pop\n      swap2\n      pop\n      pop\n        /* \"contracts/PriceConverter.sol\":456:460  1e10 */\n      0x02540be400\n        /* \"contracts/PriceConverter.sol\":448:453  price */\n      dup2\n        /* \"contracts/PriceConverter.sol\":448:460  price * 1e10 */\n      tag_84\n      swap2\n      swap1\n      tag_85\n      jump\t// in\n    tag_84:\n        /* \"contracts/PriceConverter.sol\":433:461  return uint256(price * 1e10) */\n      swap3\n      pop\n      pop\n      pop\n        /* \"contracts/PriceConverter.sol\":202:468  function getPrice() internal view returns (uint256) {... */\n      swap1\n      jump\t// out\n    tag_52:\n      dup3\n      dup1\n      sload\n      dup3\n      dup3\n      sstore\n      swap1\n      0x00\n      mstore\n      keccak256(0x00, 0x20)\n      swap1\n      dup2\n      add\n      swap3\n      dup3\n      iszero\n      tag_86\n      jumpi\n      swap2\n      0x20\n      mul\n      dup3\n      add\n    tag_87:\n      dup3\n      dup2\n      gt\n      iszero\n      tag_88\n      jumpi\n      dup3\n      mload\n      dup3\n      exp(0x0100, 0x00)\n      dup2\n      sload\n      dup2\n      0xffffffffffffffffffffffffffffffffffffffff\n      mul\n      not\n      and\n      swap1\n      dup4\n      0xffffffffffffffffffffffffffffffffffffffff\n      and\n      mul\n      or\n      swap1\n      sstore\n      pop\n      swap2\n      0x20\n      add\n      swap2\n      swap1\n      0x01\n      add\n      swap1\n      jump(tag_87)\n    tag_88:\n    tag_86:\n      pop\n      swap1\n      pop\n      tag_89\n      swap2\n      swap1\n      tag_90\n      jump\t// in\n    tag_89:\n      pop\n      swap1\n      jump\t// out\n    tag_90:\n    tag_91:\n      dup1\n      dup3\n      gt\n      iszero\n      tag_92\n      jumpi\n      0x00\n      dup2\n      0x00\n      swap1\n      sstore\n      pop\n      0x01\n      add\n      jump(tag_91)\n    tag_92:\n      pop\n      swap1\n      jump\t// out\n        /* \"#utility.yul\":7:84   */\n    tag_93:\n        /* \"#utility.yul\":44:51   */\n      0x00\n        /* \"#utility.yul\":73:78   */\n      dup2\n        /* \"#utility.yul\":62:78   */\n      swap1\n      pop\n        /* \"#utility.yul\":7:84   */\n      swap2\n      swap1\n      pop\n      jump\t// out\n        /* \"#utility.yul\":90:208   */\n    tag_94:\n        /* \"#utility.yul\":177:201   */\n      tag_127\n        /* \"#utility.yul\":195:200   */\n      dup2\n        /* \"#utility.yul\":177:201   */\n      tag_93\n      jump\t// in\n    tag_127:\n        /* \"#utility.yul\":172:175   */\n      dup3\n        /* \"#utility.yul\":165:202   */\n      mstore\n        /* \"#utility.yul\":90:208   */\n      pop\n      pop\n      jump\t// out\n        /* \"#utility.yul\":214:436   */\n    tag_12:\n        /* \"#utility.yul\":307:311   */\n      0x00\n        /* \"#utility.yul\":345:347   */\n      0x20\n        /* \"#utility.yul\":334:343   */\n      dup3\n        /* \"#utility.yul\":330:348   */\n      add\n        /* \"#utility.yul\":322:348   */\n      swap1\n      pop\n        /* \"#utility.yul\":358:429   */\n      tag_129\n        /* \"#utility.yul\":426:427   */\n      0x00\n        /* \"#utility.yul\":415:424   */\n      dup4\n        /* \"#utility.yul\":411:428   */\n      add\n        /* \"#utility.yul\":402:408   */\n      dup5\n        /* \"#utility.yul\":358:429   */\n      tag_94\n      jump\t// in\n    tag_129:\n        /* \"#utility.yul\":214:436   */\n      swap3\n      swap2\n      pop\n      pop\n      jump\t// out\n        /* \"#utility.yul\":442:568   */\n    tag_95:\n        /* \"#utility.yul\":479:486   */\n      0x00\n        /* \"#utility.yul\":519:561   */\n      0xffffffffffffffffffffffffffffffffffffffff\n        /* \"#utility.yul\":512:517   */\n      dup3\n        /* \"#utility.yul\":508:562   */\n      and\n        /* \"#utility.yul\":497:562   */\n      swap1\n      pop\n        /* \"#utility.yul\":442:568   */\n      swap2\n      swap1\n      pop\n      jump\t// out\n        /* \"#utility.yul\":574:670   */\n    tag_96:\n        /* \"#utility.yul\":611:618   */\n      0x00\n        /* \"#utility.yul\":640:664   */\n      tag_132\n        /* \"#utility.yul\":658:663   */\n      dup3\n        /* \"#utility.yul\":640:664   */\n      tag_95\n      jump\t// in\n    tag_132:\n        /* \"#utility.yul\":629:664   */\n      swap1\n      pop\n        /* \"#utility.yul\":574:670   */\n      swap2\n      swap1\n      pop\n      jump\t// out\n        /* \"#utility.yul\":676:794   */\n    tag_97:\n        /* \"#utility.yul\":763:787   */\n      tag_134\n        /* \"#utility.yul\":781:786   */\n      dup2\n        /* \"#utility.yul\":763:787   */\n      tag_96\n      jump\t// in\n    tag_134:\n        /* \"#utility.yul\":758:761   */\n      dup3\n        /* \"#utility.yul\":751:788   */\n      mstore\n        /* \"#utility.yul\":676:794   */\n      pop\n      pop\n      jump\t// out\n        /* \"#utility.yul\":800:1022   */\n    tag_20:\n        /* \"#utility.yul\":893:897   */\n      0x00\n        /* \"#utility.yul\":931:933   */\n      0x20\n        /* \"#utility.yul\":920:929   */\n      dup3\n        /* \"#utility.yul\":916:934   */\n      add\n        /* \"#utility.yul\":908:934   */\n      swap1\n      pop\n        /* \"#utility.yul\":944:1015   */\n      tag_136\n        /* \"#utility.yul\":1012:1013   */\n      0x00\n        /* \"#utility.yul\":1001:1010   */\n      dup4\n        /* \"#utility.yul\":997:1014   */\n      add\n        /* \"#utility.yul\":988:994   */\n      dup5\n        /* \"#utility.yul\":944:1015   */\n      tag_97\n      jump\t// in\n    tag_136:\n        /* \"#utility.yul\":800:1022   */\n      swap3\n      swap2\n      pop\n      pop\n      jump\t// out\n        /* \"#utility.yul\":1109:1226   */\n    tag_99:\n        /* \"#utility.yul\":1218:1219   */\n      0x00\n        /* \"#utility.yul\":1215:1216   */\n      dup1\n        /* \"#utility.yul\":1208:1220   */\n      revert\n        /* \"#utility.yul\":1355:1477   */\n    tag_101:\n        /* \"#utility.yul\":1428:1452   */\n      tag_141\n        /* \"#utility.yul\":1446:1451   */\n      dup2\n        /* \"#utility.yul\":1428:1452   */\n      tag_96\n      jump\t// in\n    tag_141:\n        /* \"#utility.yul\":1421:1426   */\n      dup2\n        /* \"#utility.yul\":1418:1453   */\n      eq\n        /* \"#utility.yul\":1408:1471   */\n      tag_142\n      jumpi\n        /* \"#utility.yul\":1467:1468   */\n      0x00\n        /* \"#utility.yul\":1464:1465   */\n      dup1\n        /* \"#utility.yul\":1457:1469   */\n      revert\n        /* \"#utility.yul\":1408:1471   */\n    tag_142:\n        /* \"#utility.yul\":1355:1477   */\n      pop\n      jump\t// out\n        /* \"#utility.yul\":1483:1622   */\n    tag_102:\n        /* \"#utility.yul\":1529:1534   */\n      0x00\n        /* \"#utility.yul\":1567:1573   */\n      dup2\n        /* \"#utility.yul\":1554:1574   */\n      calldataload\n        /* \"#utility.yul\":1545:1574   */\n      swap1\n      pop\n        /* \"#utility.yul\":1583:1616   */\n      tag_144\n        /* \"#utility.yul\":1610:1615   */\n      dup2\n        /* \"#utility.yul\":1583:1616   */\n      tag_101\n      jump\t// in\n    tag_144:\n        /* \"#utility.yul\":1483:1622   */\n      swap3\n      swap2\n      pop\n      pop\n      jump\t// out\n        /* \"#utility.yul\":1628:1957   */\n    tag_24:\n        /* \"#utility.yul\":1687:1693   */\n      0x00\n        /* \"#utility.yul\":1736:1738   */\n      0x20\n        /* \"#utility.yul\":1724:1733   */\n      dup3\n        /* \"#utility.yul\":1715:1722   */\n      dup5\n        /* \"#utility.yul\":1711:1734   */\n      sub\n        /* \"#utility.yul\":1707:1739   */\n      slt\n        /* \"#utility.yul\":1704:1823   */\n      iszero\n      tag_146\n      jumpi\n        /* \"#utility.yul\":1742:1821   */\n      tag_147\n      tag_99\n      jump\t// in\n    tag_147:\n        /* \"#utility.yul\":1704:1823   */\n    tag_146:\n        /* \"#utility.yul\":1862:1863   */\n      0x00\n        /* \"#utility.yul\":1887:1940   */\n      tag_148\n        /* \"#utility.yul\":1932:1939   */\n      dup5\n        /* \"#utility.yul\":1923:1929   */\n      dup3\n        /* \"#utility.yul\":1912:1921   */\n      dup6\n        /* \"#utility.yul\":1908:1930   */\n      add\n        /* \"#utility.yul\":1887:1940   */\n      tag_102\n      jump\t// in\n    tag_148:\n        /* \"#utility.yul\":1877:1940   */\n      swap2\n      pop\n        /* \"#utility.yul\":1833:1950   */\n      pop\n        /* \"#utility.yul\":1628:1957   */\n      swap3\n      swap2\n      pop\n      pop\n      jump\t// out\n        /* \"#utility.yul\":1963:2085   */\n    tag_103:\n        /* \"#utility.yul\":2036:2060   */\n      tag_150\n        /* \"#utility.yul\":2054:2059   */\n      dup2\n        /* \"#utility.yul\":2036:2060   */\n      tag_93\n      jump\t// in\n    tag_150:\n        /* \"#utility.yul\":2029:2034   */\n      dup2\n        /* \"#utility.yul\":2026:2061   */\n      eq\n        /* \"#utility.yul\":2016:2079   */\n      tag_151\n      jumpi\n        /* \"#utility.yul\":2075:2076   */\n      0x00\n        /* \"#utility.yul\":2072:2073   */\n      dup1\n        /* \"#utility.yul\":2065:2077   */\n      revert\n        /* \"#utility.yul\":2016:2079   */\n    tag_151:\n        /* \"#utility.yul\":1963:2085   */\n      pop\n      jump\t// out\n        /* \"#utility.yul\":2091:2230   */\n    tag_104:\n        /* \"#utility.yul\":2137:2142   */\n      0x00\n        /* \"#utility.yul\":2175:2181   */\n      dup2\n        /* \"#utility.yul\":2162:2182   */\n      calldataload\n        /* \"#utility.yul\":2153:2182   */\n      swap1\n      pop\n        /* \"#utility.yul\":2191:2224   */\n      tag_153\n        /* \"#utility.yul\":2218:2223   */\n      dup2\n        /* \"#utility.yul\":2191:2224   */\n      tag_103\n      jump\t// in\n    tag_153:\n        /* \"#utility.yul\":2091:2230   */\n      swap3\n      swap2\n      pop\n      pop\n      jump\t// out\n        /* \"#utility.yul\":2236:2565   */\n    tag_32:\n        /* \"#utility.yul\":2295:2301   */\n      0x00\n        /* \"#utility.yul\":2344:2346   */\n      0x20\n        /* \"#utility.yul\":2332:2341   */\n      dup3\n        /* \"#utility.yul\":2323:2330   */\n      dup5\n        /* \"#utility.yul\":2319:2342   */\n      sub\n        /* \"#utility.yul\":2315:2347   */\n      slt\n        /* \"#utility.yul\":2312:2431   */\n      iszero\n      tag_155\n      jumpi\n        /* \"#utility.yul\":2350:2429   */\n      tag_156\n      tag_99\n      jump\t// in\n    tag_156:\n        /* \"#utility.yul\":2312:2431   */\n    tag_155:\n        /* \"#utility.yul\":2470:2471   */\n      0x00\n        /* \"#utility.yul\":2495:2548   */\n      tag_157\n        /* \"#utility.yul\":2540:2547   */\n      dup5\n        /* \"#utility.yul\":2531:2537   */\n      dup3\n        /* \"#utility.yul\":2520:2529   */\n      dup6\n        /* \"#utility.yul\":2516:2538   */\n      add\n        /* \"#utility.yul\":2495:2548   */\n      tag_104\n      jump\t// in\n    tag_157:\n        /* \"#utility.yul\":2485:2548   */\n      swap2\n      pop\n        /* \"#utility.yul\":2441:2558   */\n      pop\n        /* \"#utility.yul\":2236:2565   */\n      swap3\n      swap2\n      pop\n      pop\n      jump\t// out\n        /* \"#utility.yul\":2571:2740   */\n    tag_105:\n        /* \"#utility.yul\":2655:2666   */\n      0x00\n        /* \"#utility.yul\":2689:2695   */\n      dup3\n        /* \"#utility.yul\":2684:2687   */\n      dup3\n        /* \"#utility.yul\":2677:2696   */\n      mstore\n        /* \"#utility.yul\":2729:2733   */\n      0x20\n        /* \"#utility.yul\":2724:2727   */\n      dup3\n        /* \"#utility.yul\":2720:2734   */\n      add\n        /* \"#utility.yul\":2705:2734   */\n      swap1\n      pop\n        /* \"#utility.yul\":2571:2740   */\n      swap3\n      swap2\n      pop\n      pop\n      jump\t// out\n        /* \"#utility.yul\":2746:2913   */\n    tag_106:\n        /* \"#utility.yul\":2886:2905   */\n      0x4d75737420626520746865206f776e6572000000000000000000000000000000\n        /* \"#utility.yul\":2882:2883   */\n      0x00\n        /* \"#utility.yul\":2874:2880   */\n      dup3\n        /* \"#utility.yul\":2870:2884   */\n      add\n        /* \"#utility.yul\":2863:2906   */\n      mstore\n        /* \"#utility.yul\":2746:2913   */\n      pop\n      jump\t// out\n        /* \"#utility.yul\":2919:3285   */\n    tag_107:\n        /* \"#utility.yul\":3061:3064   */\n      0x00\n        /* \"#utility.yul\":3082:3149   */\n      tag_161\n        /* \"#utility.yul\":3146:3148   */\n      0x11\n        /* \"#utility.yul\":3141:3144   */\n      dup4\n        /* \"#utility.yul\":3082:3149   */\n      tag_105\n      jump\t// in\n    tag_161:\n        /* \"#utility.yul\":3075:3149   */\n      swap2\n      pop\n        /* \"#utility.yul\":3158:3251   */\n      tag_162\n        /* \"#utility.yul\":3247:3250   */\n      dup3\n        /* \"#utility.yul\":3158:3251   */\n      tag_106\n      jump\t// in\n    tag_162:\n        /* \"#utility.yul\":3276:3278   */\n      0x20\n        /* \"#utility.yul\":3271:3274   */\n      dup3\n        /* \"#utility.yul\":3267:3279   */\n      add\n        /* \"#utility.yul\":3260:3279   */\n      swap1\n      pop\n        /* \"#utility.yul\":2919:3285   */\n      swap2\n      swap1\n      pop\n      jump\t// out\n        /* \"#utility.yul\":3291:3710   */\n    tag_38:\n        /* \"#utility.yul\":3457:3461   */\n      0x00\n        /* \"#utility.yul\":3495:3497   */\n      0x20\n        /* \"#utility.yul\":3484:3493   */\n      dup3\n        /* \"#utility.yul\":3480:3498   */\n      add\n        /* \"#utility.yul\":3472:3498   */\n      swap1\n      pop\n        /* \"#utility.yul\":3544:3553   */\n      dup2\n        /* \"#utility.yul\":3538:3542   */\n      dup2\n        /* \"#utility.yul\":3534:3554   */\n      sub\n        /* \"#utility.yul\":3530:3531   */\n      0x00\n        /* \"#utility.yul\":3519:3528   */\n      dup4\n        /* \"#utility.yul\":3515:3532   */\n      add\n        /* \"#utility.yul\":3508:3555   */\n      mstore\n        /* \"#utility.yul\":3572:3703   */\n      tag_164\n        /* \"#utility.yul\":3698:3702   */\n      dup2\n        /* \"#utility.yul\":3572:3703   */\n      tag_107\n      jump\t// in\n    tag_164:\n        /* \"#utility.yul\":3564:3703   */\n      swap1\n      pop\n        /* \"#utility.yul\":3291:3710   */\n      swap2\n      swap1\n      pop\n      jump\t// out\n        /* \"#utility.yul\":3716:3896   */\n    tag_45:\n        /* \"#utility.yul\":3764:3841   */\n      0x4e487b7100000000000000000000000000000000000000000000000000000000\n        /* \"#utility.yul\":3761:3762   */\n      0x00\n        /* \"#utility.yul\":3754:3842   */\n      mstore\n        /* \"#utility.yul\":3861:3865   */\n      0x32\n        /* \"#utility.yul\":3858:3859   */\n      0x04\n        /* \"#utility.yul\":3851:3866   */\n      mstore\n        /* \"#utility.yul\":3885:3889   */\n      0x24\n        /* \"#utility.yul\":3882:3883   */\n      0x00\n        /* \"#utility.yul\":3875:3890   */\n      revert\n        /* \"#utility.yul\":3902:4082   */\n    tag_49:\n        /* \"#utility.yul\":3950:4027   */\n      0x4e487b7100000000000000000000000000000000000000000000000000000000\n        /* \"#utility.yul\":3947:3948   */\n      0x00\n        /* \"#utility.yul\":3940:4028   */\n      mstore\n        /* \"#utility.yul\":4047:4051   */\n      0x41\n        /* \"#utility.yul\":4044:4045   */\n      0x04\n        /* \"#utility.yul\":4037:4052   */\n      mstore\n        /* \"#utility.yul\":4071:4075   */\n      0x24\n        /* \"#utility.yul\":4068:4069   */\n      0x00\n        /* \"#utility.yul\":4061:4076   */\n      revert\n        /* \"#utility.yul\":4088:4235   */\n    tag_108:\n        /* \"#utility.yul\":4189:4200   */\n      0x00\n        /* \"#utility.yul\":4226:4229   */\n      dup2\n        /* \"#utility.yul\":4211:4229   */\n      swap1\n      pop\n        /* \"#utility.yul\":4088:4235   */\n      swap3\n      swap2\n      pop\n      pop\n      jump\t// out\n        /* \"#utility.yul\":4241:4355   */\n    tag_109:\n      pop\n      jump\t// out\n        /* \"#utility.yul\":4361:4759   */\n    tag_110:\n        /* \"#utility.yul\":4520:4523   */\n      0x00\n        /* \"#utility.yul\":4541:4624   */\n      tag_170\n        /* \"#utility.yul\":4622:4623   */\n      0x00\n        /* \"#utility.yul\":4617:4620   */\n      dup4\n        /* \"#utility.yul\":4541:4624   */\n      tag_108\n      jump\t// in\n    tag_170:\n        /* \"#utility.yul\":4534:4624   */\n      swap2\n      pop\n        /* \"#utility.yul\":4633:4726   */\n      tag_171\n        /* \"#utility.yul\":4722:4725   */\n      dup3\n        /* \"#utility.yul\":4633:4726   */\n      tag_109\n      jump\t// in\n    tag_171:\n        /* \"#utility.yul\":4751:4752   */\n      0x00\n        /* \"#utility.yul\":4746:4749   */\n      dup3\n        /* \"#utility.yul\":4742:4753   */\n      add\n        /* \"#utility.yul\":4735:4753   */\n      swap1\n      pop\n        /* \"#utility.yul\":4361:4759   */\n      swap2\n      swap1\n      pop\n      jump\t// out\n        /* \"#utility.yul\":4765:5144   */\n    tag_54:\n        /* \"#utility.yul\":4949:4952   */\n      0x00\n        /* \"#utility.yul\":4971:5118   */\n      tag_173\n        /* \"#utility.yul\":5114:5117   */\n      dup3\n        /* \"#utility.yul\":4971:5118   */\n      tag_110\n      jump\t// in\n    tag_173:\n        /* \"#utility.yul\":4964:5118   */\n      swap2\n      pop\n        /* \"#utility.yul\":5135:5138   */\n      dup2\n        /* \"#utility.yul\":5128:5138   */\n      swap1\n      pop\n        /* \"#utility.yul\":4765:5144   */\n      swap2\n      swap1\n      pop\n      jump\t// out\n        /* \"#utility.yul\":5150:5311   */\n    tag_111:\n        /* \"#utility.yul\":5290:5303   */\n      0x63616c6c206661696c6564000000000000000000000000000000000000000000\n        /* \"#utility.yul\":5286:5287   */\n      0x00\n        /* \"#utility.yul\":5278:5284   */\n      dup3\n        /* \"#utility.yul\":5274:5288   */\n      add\n        /* \"#utility.yul\":5267:5304   */\n      mstore\n        /* \"#utility.yul\":5150:5311   */\n      pop\n      jump\t// out\n        /* \"#utility.yul\":5317:5683   */\n    tag_112:\n        /* \"#utility.yul\":5459:5462   */\n      0x00\n        /* \"#utility.yul\":5480:5547   */\n      tag_176\n        /* \"#utility.yul\":5544:5546   */\n      0x0b\n        /* \"#utility.yul\":5539:5542   */\n      dup4\n        /* \"#utility.yul\":5480:5547   */\n      tag_105\n      jump\t// in\n    tag_176:\n        /* \"#utility.yul\":5473:5547   */\n      swap2\n      pop\n        /* \"#utility.yul\":5556:5649   */\n      tag_177\n        /* \"#utility.yul\":5645:5648   */\n      dup3\n        /* \"#utility.yul\":5556:5649   */\n      tag_111\n      jump\t// in\n    tag_177:\n        /* \"#utility.yul\":5674:5676   */\n      0x20\n        /* \"#utility.yul\":5669:5672   */\n      dup3\n        /* \"#utility.yul\":5665:5677   */\n      add\n        /* \"#utility.yul\":5658:5677   */\n      swap1\n      pop\n        /* \"#utility.yul\":5317:5683   */\n      swap2\n      swap1\n      pop\n      jump\t// out\n        /* \"#utility.yul\":5689:6108   */\n    tag_60:\n        /* \"#utility.yul\":5855:5859   */\n      0x00\n        /* \"#utility.yul\":5893:5895   */\n      0x20\n        /* \"#utility.yul\":5882:5891   */\n      dup3\n        /* \"#utility.yul\":5878:5896   */\n      add\n        /* \"#utility.yul\":5870:5896   */\n      swap1\n      pop\n        /* \"#utility.yul\":5942:5951   */\n      dup2\n        /* \"#utility.yul\":5936:5940   */\n      dup2\n        /* \"#utility.yul\":5932:5952   */\n      sub\n        /* \"#utility.yul\":5928:5929   */\n      0x00\n        /* \"#utility.yul\":5917:5926   */\n      dup4\n        /* \"#utility.yul\":5913:5930   */\n      add\n        /* \"#utility.yul\":5906:5953   */\n      mstore\n        /* \"#utility.yul\":5970:6101   */\n      tag_179\n        /* \"#utility.yul\":6096:6100   */\n      dup2\n        /* \"#utility.yul\":5970:6101   */\n      tag_112\n      jump\t// in\n    tag_179:\n        /* \"#utility.yul\":5962:6101   */\n      swap1\n      pop\n        /* \"#utility.yul\":5689:6108   */\n      swap2\n      swap1\n      pop\n      jump\t// out\n        /* \"#utility.yul\":6114:6289   */\n    tag_113:\n        /* \"#utility.yul\":6254:6281   */\n      0x4469646e27742073656e6420656e6e6f75676820657468657200000000000000\n        /* \"#utility.yul\":6250:6251   */\n      0x00\n        /* \"#utility.yul\":6242:6248   */\n      dup3\n        /* \"#utility.yul\":6238:6252   */\n      add\n        /* \"#utility.yul\":6231:6282   */\n      mstore\n        /* \"#utility.yul\":6114:6289   */\n      pop\n      jump\t// out\n        /* \"#utility.yul\":6295:6661   */\n    tag_114:\n        /* \"#utility.yul\":6437:6440   */\n      0x00\n        /* \"#utility.yul\":6458:6525   */\n      tag_182\n        /* \"#utility.yul\":6522:6524   */\n      0x19\n        /* \"#utility.yul\":6517:6520   */\n      dup4\n        /* \"#utility.yul\":6458:6525   */\n      tag_105\n      jump\t// in\n    tag_182:\n        /* \"#utility.yul\":6451:6525   */\n      swap2\n      pop\n        /* \"#utility.yul\":6534:6627   */\n      tag_183\n        /* \"#utility.yul\":6623:6626   */\n      dup3\n        /* \"#utility.yul\":6534:6627   */\n      tag_113\n      jump\t// in\n    tag_183:\n        /* \"#utility.yul\":6652:6654   */\n      0x20\n        /* \"#utility.yul\":6647:6650   */\n      dup3\n        /* \"#utility.yul\":6643:6655   */\n      add\n        /* \"#utility.yul\":6636:6655   */\n      swap1\n      pop\n        /* \"#utility.yul\":6295:6661   */\n      swap2\n      swap1\n      pop\n      jump\t// out\n        /* \"#utility.yul\":6667:7086   */\n    tag_66:\n        /* \"#utility.yul\":6833:6837   */\n      0x00\n        /* \"#utility.yul\":6871:6873   */\n      0x20\n        /* \"#utility.yul\":6860:6869   */\n      dup3\n        /* \"#utility.yul\":6856:6874   */\n      add\n        /* \"#utility.yul\":6848:6874   */\n      swap1\n      pop\n        /* \"#utility.yul\":6920:6929   */\n      dup2\n        /* \"#utility.yul\":6914:6918   */\n      dup2\n        /* \"#utility.yul\":6910:6930   */\n      sub\n        /* \"#utility.yul\":6906:6907   */\n      0x00\n        /* \"#utility.yul\":6895:6904   */\n      dup4\n        /* \"#utility.yul\":6891:6908   */\n      add\n        /* \"#utility.yul\":6884:6931   */\n      mstore\n        /* \"#utility.yul\":6948:7079   */\n      tag_185\n        /* \"#utility.yul\":7074:7078   */\n      dup2\n        /* \"#utility.yul\":6948:7079   */\n      tag_114\n      jump\t// in\n    tag_185:\n        /* \"#utility.yul\":6940:7079   */\n      swap1\n      pop\n        /* \"#utility.yul\":6667:7086   */\n      swap2\n      swap1\n      pop\n      jump\t// out\n        /* \"#utility.yul\":7092:7272   */\n    tag_115:\n        /* \"#utility.yul\":7140:7217   */\n      0x4e487b7100000000000000000000000000000000000000000000000000000000\n        /* \"#utility.yul\":7137:7138   */\n      0x00\n        /* \"#utility.yul\":7130:7218   */\n      mstore\n        /* \"#utility.yul\":7237:7241   */\n      0x11\n        /* \"#utility.yul\":7234:7235   */\n      0x04\n        /* \"#utility.yul\":7227:7242   */\n      mstore\n        /* \"#utility.yul\":7261:7265   */\n      0x24\n        /* \"#utility.yul\":7258:7259   */\n      0x00\n        /* \"#utility.yul\":7251:7266   */\n      revert\n        /* \"#utility.yul\":7278:7469   */\n    tag_69:\n        /* \"#utility.yul\":7318:7321   */\n      0x00\n        /* \"#utility.yul\":7337:7357   */\n      tag_188\n        /* \"#utility.yul\":7355:7356   */\n      dup3\n        /* \"#utility.yul\":7337:7357   */\n      tag_93\n      jump\t// in\n    tag_188:\n        /* \"#utility.yul\":7332:7357   */\n      swap2\n      pop\n        /* \"#utility.yul\":7371:7391   */\n      tag_189\n        /* \"#utility.yul\":7389:7390   */\n      dup4\n        /* \"#utility.yul\":7371:7391   */\n      tag_93\n      jump\t// in\n    tag_189:\n        /* \"#utility.yul\":7366:7391   */\n      swap3\n      pop\n        /* \"#utility.yul\":7414:7415   */\n      dup3\n        /* \"#utility.yul\":7411:7412   */\n      dup3\n        /* \"#utility.yul\":7407:7416   */\n      add\n        /* \"#utility.yul\":7400:7416   */\n      swap1\n      pop\n        /* \"#utility.yul\":7435:7438   */\n      dup1\n        /* \"#utility.yul\":7432:7433   */\n      dup3\n        /* \"#utility.yul\":7429:7439   */\n      gt\n        /* \"#utility.yul\":7426:7462   */\n      iszero\n      tag_190\n      jumpi\n        /* \"#utility.yul\":7442:7460   */\n      tag_191\n      tag_115\n      jump\t// in\n    tag_191:\n        /* \"#utility.yul\":7426:7462   */\n    tag_190:\n        /* \"#utility.yul\":7278:7469   */\n      swap3\n      swap2\n      pop\n      pop\n      jump\t// out\n        /* \"#utility.yul\":7475:7885   */\n    tag_76:\n        /* \"#utility.yul\":7515:7522   */\n      0x00\n        /* \"#utility.yul\":7538:7558   */\n      tag_193\n        /* \"#utility.yul\":7556:7557   */\n      dup3\n        /* \"#utility.yul\":7538:7558   */\n      tag_93\n      jump\t// in\n    tag_193:\n        /* \"#utility.yul\":7533:7558   */\n      swap2\n      pop\n        /* \"#utility.yul\":7572:7592   */\n      tag_194\n        /* \"#utility.yul\":7590:7591   */\n      dup4\n        /* \"#utility.yul\":7572:7592   */\n      tag_93\n      jump\t// in\n    tag_194:\n        /* \"#utility.yul\":7567:7592   */\n      swap3\n      pop\n        /* \"#utility.yul\":7627:7628   */\n      dup3\n        /* \"#utility.yul\":7624:7625   */\n      dup3\n        /* \"#utility.yul\":7620:7629   */\n      mul\n        /* \"#utility.yul\":7649:7679   */\n      tag_195\n        /* \"#utility.yul\":7667:7678   */\n      dup2\n        /* \"#utility.yul\":7649:7679   */\n      tag_93\n      jump\t// in\n    tag_195:\n        /* \"#utility.yul\":7638:7679   */\n      swap2\n      pop\n        /* \"#utility.yul\":7828:7829   */\n      dup3\n        /* \"#utility.yul\":7819:7826   */\n      dup3\n        /* \"#utility.yul\":7815:7830   */\n      div\n        /* \"#utility.yul\":7812:7813   */\n      dup5\n        /* \"#utility.yul\":7809:7831   */\n      eq\n        /* \"#utility.yul\":7789:7790   */\n      dup4\n        /* \"#utility.yul\":7782:7791   */\n      iszero\n        /* \"#utility.yul\":7762:7845   */\n      or\n        /* \"#utility.yul\":7739:7878   */\n      tag_196\n      jumpi\n        /* \"#utility.yul\":7858:7876   */\n      tag_197\n      tag_115\n      jump\t// in\n    tag_197:\n        /* \"#utility.yul\":7739:7878   */\n    tag_196:\n        /* \"#utility.yul\":7523:7885   */\n      pop\n        /* \"#utility.yul\":7475:7885   */\n      swap3\n      swap2\n      pop\n      pop\n      jump\t// out\n        /* \"#utility.yul\":7891:8071   */\n    tag_116:\n        /* \"#utility.yul\":7939:8016   */\n      0x4e487b7100000000000000000000000000000000000000000000000000000000\n        /* \"#utility.yul\":7936:7937   */\n      0x00\n        /* \"#utility.yul\":7929:8017   */\n      mstore\n        /* \"#utility.yul\":8036:8040   */\n      0x12\n        /* \"#utility.yul\":8033:8034   */\n      0x04\n        /* \"#utility.yul\":8026:8041   */\n      mstore\n        /* \"#utility.yul\":8060:8064   */\n      0x24\n        /* \"#utility.yul\":8057:8058   */\n      0x00\n        /* \"#utility.yul\":8050:8065   */\n      revert\n        /* \"#utility.yul\":8077:8262   */\n    tag_78:\n        /* \"#utility.yul\":8117:8118   */\n      0x00\n        /* \"#utility.yul\":8134:8154   */\n      tag_200\n        /* \"#utility.yul\":8152:8153   */\n      dup3\n        /* \"#utility.yul\":8134:8154   */\n      tag_93\n      jump\t// in\n    tag_200:\n        /* \"#utility.yul\":8129:8154   */\n      swap2\n      pop\n        /* \"#utility.yul\":8168:8188   */\n      tag_201\n        /* \"#utility.yul\":8186:8187   */\n      dup4\n        /* \"#utility.yul\":8168:8188   */\n      tag_93\n      jump\t// in\n    tag_201:\n        /* \"#utility.yul\":8163:8188   */\n      swap3\n      pop\n        /* \"#utility.yul\":8207:8208   */\n      dup3\n        /* \"#utility.yul\":8197:8232   */\n      tag_202\n      jumpi\n        /* \"#utility.yul\":8212:8230   */\n      tag_203\n      tag_116\n      jump\t// in\n    tag_203:\n        /* \"#utility.yul\":8197:8232   */\n    tag_202:\n        /* \"#utility.yul\":8254:8255   */\n      dup3\n        /* \"#utility.yul\":8251:8252   */\n      dup3\n        /* \"#utility.yul\":8247:8256   */\n      div\n        /* \"#utility.yul\":8242:8256   */\n      swap1\n      pop\n        /* \"#utility.yul\":8077:8262   */\n      swap3\n      swap2\n      pop\n      pop\n      jump\t// out\n        /* \"#utility.yul\":8268:8373   */\n    tag_117:\n        /* \"#utility.yul\":8304:8311   */\n      0x00\n        /* \"#utility.yul\":8344:8366   */\n      0xffffffffffffffffffff\n        /* \"#utility.yul\":8337:8342   */\n      dup3\n        /* \"#utility.yul\":8333:8367   */\n      and\n        /* \"#utility.yul\":8322:8367   */\n      swap1\n      pop\n        /* \"#utility.yul\":8268:8373   */\n      swap2\n      swap1\n      pop\n      jump\t// out\n        /* \"#utility.yul\":8379:8499   */\n    tag_118:\n        /* \"#utility.yul\":8451:8474   */\n      tag_206\n        /* \"#utility.yul\":8468:8473   */\n      dup2\n        /* \"#utility.yul\":8451:8474   */\n      tag_117\n      jump\t// in\n    tag_206:\n        /* \"#utility.yul\":8444:8449   */\n      dup2\n        /* \"#utility.yul\":8441:8475   */\n      eq\n        /* \"#utility.yul\":8431:8493   */\n      tag_207\n      jumpi\n        /* \"#utility.yul\":8489:8490   */\n      0x00\n        /* \"#utility.yul\":8486:8487   */\n      dup1\n        /* \"#utility.yul\":8479:8491   */\n      revert\n        /* \"#utility.yul\":8431:8493   */\n    tag_207:\n        /* \"#utility.yul\":8379:8499   */\n      pop\n      jump\t// out\n        /* \"#utility.yul\":8505:8646   */\n    tag_119:\n        /* \"#utility.yul\":8561:8566   */\n      0x00\n        /* \"#utility.yul\":8592:8598   */\n      dup2\n        /* \"#utility.yul\":8586:8599   */\n      mload\n        /* \"#utility.yul\":8577:8599   */\n      swap1\n      pop\n        /* \"#utility.yul\":8608:8640   */\n      tag_209\n        /* \"#utility.yul\":8634:8639   */\n      dup2\n        /* \"#utility.yul\":8608:8640   */\n      tag_118\n      jump\t// in\n    tag_209:\n        /* \"#utility.yul\":8505:8646   */\n      swap3\n      swap2\n      pop\n      pop\n      jump\t// out\n        /* \"#utility.yul\":8652:8728   */\n    tag_120:\n        /* \"#utility.yul\":8688:8695   */\n      0x00\n        /* \"#utility.yul\":8717:8722   */\n      dup2\n        /* \"#utility.yul\":8706:8722   */\n      swap1\n      pop\n        /* \"#utility.yul\":8652:8728   */\n      swap2\n      swap1\n      pop\n      jump\t// out\n        /* \"#utility.yul\":8734:8854   */\n    tag_121:\n        /* \"#utility.yul\":8806:8829   */\n      tag_212\n        /* \"#utility.yul\":8823:8828   */\n      dup2\n        /* \"#utility.yul\":8806:8829   */\n      tag_120\n      jump\t// in\n    tag_212:\n        /* \"#utility.yul\":8799:8804   */\n      dup2\n        /* \"#utility.yul\":8796:8830   */\n      eq\n        /* \"#utility.yul\":8786:8848   */\n      tag_213\n      jumpi\n        /* \"#utility.yul\":8844:8845   */\n      0x00\n        /* \"#utility.yul\":8841:8842   */\n      dup1\n        /* \"#utility.yul\":8834:8846   */\n      revert\n        /* \"#utility.yul\":8786:8848   */\n    tag_213:\n        /* \"#utility.yul\":8734:8854   */\n      pop\n      jump\t// out\n        /* \"#utility.yul\":8860:9001   */\n    tag_122:\n        /* \"#utility.yul\":8916:8921   */\n      0x00\n        /* \"#utility.yul\":8947:8953   */\n      dup2\n        /* \"#utility.yul\":8941:8954   */\n      mload\n        /* \"#utility.yul\":8932:8954   */\n      swap1\n      pop\n        /* \"#utility.yul\":8963:8995   */\n      tag_215\n        /* \"#utility.yul\":8989:8994   */\n      dup2\n        /* \"#utility.yul\":8963:8995   */\n      tag_121\n      jump\t// in\n    tag_215:\n        /* \"#utility.yul\":8860:9001   */\n      swap3\n      swap2\n      pop\n      pop\n      jump\t// out\n        /* \"#utility.yul\":9007:9150   */\n    tag_123:\n        /* \"#utility.yul\":9064:9069   */\n      0x00\n        /* \"#utility.yul\":9095:9101   */\n      dup2\n        /* \"#utility.yul\":9089:9102   */\n      mload\n        /* \"#utility.yul\":9080:9102   */\n      swap1\n      pop\n        /* \"#utility.yul\":9111:9144   */\n      tag_217\n        /* \"#utility.yul\":9138:9143   */\n      dup2\n        /* \"#utility.yul\":9111:9144   */\n      tag_103\n      jump\t// in\n    tag_217:\n        /* \"#utility.yul\":9007:9150   */\n      swap3\n      swap2\n      pop\n      pop\n      jump\t// out\n        /* \"#utility.yul\":9156:10127   */\n    tag_83:\n        /* \"#utility.yul\":9259:9265   */\n      0x00\n        /* \"#utility.yul\":9267:9273   */\n      dup1\n        /* \"#utility.yul\":9275:9281   */\n      0x00\n        /* \"#utility.yul\":9283:9289   */\n      dup1\n        /* \"#utility.yul\":9291:9297   */\n      0x00\n        /* \"#utility.yul\":9340:9343   */\n      0xa0\n        /* \"#utility.yul\":9328:9337   */\n      dup7\n        /* \"#utility.yul\":9319:9326   */\n      dup9\n        /* \"#utility.yul\":9315:9338   */\n      sub\n        /* \"#utility.yul\":9311:9344   */\n      slt\n        /* \"#utility.yul\":9308:9428   */\n      iszero\n      tag_219\n      jumpi\n        /* \"#utility.yul\":9347:9426   */\n      tag_220\n      tag_99\n      jump\t// in\n    tag_220:\n        /* \"#utility.yul\":9308:9428   */\n    tag_219:\n        /* \"#utility.yul\":9467:9468   */\n      0x00\n        /* \"#utility.yul\":9492:9555   */\n      tag_221\n        /* \"#utility.yul\":9547:9554   */\n      dup9\n        /* \"#utility.yul\":9538:9544   */\n      dup3\n        /* \"#utility.yul\":9527:9536   */\n      dup10\n        /* \"#utility.yul\":9523:9545   */\n      add\n        /* \"#utility.yul\":9492:9555   */\n      tag_119\n      jump\t// in\n    tag_221:\n        /* \"#utility.yul\":9482:9555   */\n      swap6\n      pop\n        /* \"#utility.yul\":9438:9565   */\n      pop\n        /* \"#utility.yul\":9604:9606   */\n      0x20\n        /* \"#utility.yul\":9630:9693   */\n      tag_222\n        /* \"#utility.yul\":9685:9692   */\n      dup9\n        /* \"#utility.yul\":9676:9682   */\n      dup3\n        /* \"#utility.yul\":9665:9674   */\n      dup10\n        /* \"#utility.yul\":9661:9683   */\n      add\n        /* \"#utility.yul\":9630:9693   */\n      tag_122\n      jump\t// in\n    tag_222:\n        /* \"#utility.yul\":9620:9693   */\n      swap5\n      pop\n        /* \"#utility.yul\":9575:9703   */\n      pop\n        /* \"#utility.yul\":9742:9744   */\n      0x40\n        /* \"#utility.yul\":9768:9832   */\n      tag_223\n        /* \"#utility.yul\":9824:9831   */\n      dup9\n        /* \"#utility.yul\":9815:9821   */\n      dup3\n        /* \"#utility.yul\":9804:9813   */\n      dup10\n        /* \"#utility.yul\":9800:9822   */\n      add\n        /* \"#utility.yul\":9768:9832   */\n      tag_123\n      jump\t// in\n    tag_223:\n        /* \"#utility.yul\":9758:9832   */\n      swap4\n      pop\n        /* \"#utility.yul\":9713:9842   */\n      pop\n        /* \"#utility.yul\":9881:9883   */\n      0x60\n        /* \"#utility.yul\":9907:9971   */\n      tag_224\n        /* \"#utility.yul\":9963:9970   */\n      dup9\n        /* \"#utility.yul\":9954:9960   */\n      dup3\n        /* \"#utility.yul\":9943:9952   */\n      dup10\n        /* \"#utility.yul\":9939:9961   */\n      add\n        /* \"#utility.yul\":9907:9971   */\n      tag_123\n      jump\t// in\n    tag_224:\n        /* \"#utility.yul\":9897:9971   */\n      swap3\n      pop\n        /* \"#utility.yul\":9852:9981   */\n      pop\n        /* \"#utility.yul\":10020:10023   */\n      0x80\n        /* \"#utility.yul\":10047:10110   */\n      tag_225\n        /* \"#utility.yul\":10102:10109   */\n      dup9\n        /* \"#utility.yul\":10093:10099   */\n      dup3\n        /* \"#utility.yul\":10082:10091   */\n      dup10\n        /* \"#utility.yul\":10078:10100   */\n      add\n        /* \"#utility.yul\":10047:10110   */\n      tag_119\n      jump\t// in\n    tag_225:\n        /* \"#utility.yul\":10037:10110   */\n      swap2\n      pop\n        /* \"#utility.yul\":9991:10120   */\n      pop\n        /* \"#utility.yul\":9156:10127   */\n      swap3\n      swap6\n      pop\n      swap3\n      swap6\n      swap1\n      swap4\n      pop\n      jump\t// out\n        /* \"#utility.yul\":10133:10689   */\n    tag_85:\n        /* \"#utility.yul\":10172:10179   */\n      0x00\n        /* \"#utility.yul\":10195:10214   */\n      tag_227\n        /* \"#utility.yul\":10212:10213   */\n      dup3\n        /* \"#utility.yul\":10195:10214   */\n      tag_120\n      jump\t// in\n    tag_227:\n        /* \"#utility.yul\":10190:10214   */\n      swap2\n      pop\n        /* \"#utility.yul\":10228:10247   */\n      tag_228\n        /* \"#utility.yul\":10245:10246   */\n      dup4\n        /* \"#utility.yul\":10228:10247   */\n      tag_120\n      jump\t// in\n    tag_228:\n        /* \"#utility.yul\":10223:10247   */\n      swap3\n      pop\n        /* \"#utility.yul\":10282:10283   */\n      dup3\n        /* \"#utility.yul\":10279:10280   */\n      dup3\n        /* \"#utility.yul\":10275:10284   */\n      mul\n        /* \"#utility.yul\":10304:10333   */\n      tag_229\n        /* \"#utility.yul\":10321:10332   */\n      dup2\n        /* \"#utility.yul\":10304:10333   */\n      tag_120\n      jump\t// in\n    tag_229:\n        /* \"#utility.yul\":10293:10333   */\n      swap2\n      pop\n        /* \"#utility.yul\":10391:10457   */\n      0x8000000000000000000000000000000000000000000000000000000000000000\n        /* \"#utility.yul\":10388:10389   */\n      dup5\n        /* \"#utility.yul\":10385:10458   */\n      eq\n        /* \"#utility.yul\":10381:10382   */\n      0x00\n        /* \"#utility.yul\":10378:10379   */\n      dup5\n        /* \"#utility.yul\":10374:10383   */\n      slt\n        /* \"#utility.yul\":10370:10459   */\n      and\n        /* \"#utility.yul\":10367:10482   */\n      iszero\n      tag_230\n      jumpi\n        /* \"#utility.yul\":10462:10480   */\n      tag_231\n      tag_115\n      jump\t// in\n    tag_231:\n        /* \"#utility.yul\":10367:10482   */\n    tag_230:\n        /* \"#utility.yul\":10632:10633   */\n      dup3\n        /* \"#utility.yul\":10623:10630   */\n      dup3\n        /* \"#utility.yul\":10618:10634   */\n      sdiv\n        /* \"#utility.yul\":10615:10616   */\n      dup5\n        /* \"#utility.yul\":10612:10635   */\n      eq\n        /* \"#utility.yul\":10592:10593   */\n      dup4\n        /* \"#utility.yul\":10585:10594   */\n      iszero\n        /* \"#utility.yul\":10565:10649   */\n      or\n        /* \"#utility.yul\":10542:10682   */\n      tag_232\n      jumpi\n        /* \"#utility.yul\":10662:10680   */\n      tag_233\n      tag_115\n      jump\t// in\n    tag_233:\n        /* \"#utility.yul\":10542:10682   */\n    tag_232:\n        /* \"#utility.yul\":10180:10689   */\n      pop\n        /* \"#utility.yul\":10133:10689   */\n      swap3\n      swap2\n      pop\n      pop\n      jump\t// out\n\n    auxdata: 0xa264697066735822122072ffd60da8231c1a0f356df92e04c600d80866bafcb2592848a88a148f2549cd64736f6c634300081a0033\n}\n",
				"bytecode": {
					"linkReferences": {},
					"object": "6080604052674563918244f400005f553480156019575f80fd5b503360035f6101000a81548173ffffffffffffffffffffffffffffffffffffffff021916908373ffffffffffffffffffffffffffffffffffffffff160217905550610c37806100675f395ff3fe608060405260043610610054575f3560e01c8063098de820146100585780633ccfd60b146100825780638da5cb5b14610098578063a42d06ac146100c2578063b60d4288146100fe578063d8e75f6214610108575b5f80fd5b348015610063575f80fd5b5061006c610144565b604051610079919061068e565b60405180910390f35b34801561008d575f80fd5b50610096610149565b005b3480156100a3575f80fd5b506100ac610381565b6040516100b991906106e6565b60405180910390f35b3480156100cd575f80fd5b506100e860048036038101906100e3919061072d565b6103a6565b6040516100f5919061068e565b60405180910390f35b6101066103bb565b005b348015610113575f80fd5b5061012e60048036038101906101299190610782565b6104bc565b60405161013b91906106e6565b60405180910390f35b5f5481565b60035f9054906101000a900473ffffffffffffffffffffffffffffffffffffffff1673ffffffffffffffffffffffffffffffffffffffff163373ffffffffffffffffffffffffffffffffffffffff16146101d8576040517f08c379a00000000000000000000000000000000000000000000000000000000081526004016101cf90610807565b60405180910390fd5b5f5b600180549050811015610276575f600182815481106101fc576101fb610825565b5b905f5260205f20015f9054906101000a900473ffffffffffffffffffffffffffffffffffffffff1690505f60025f8373ffffffffffffffffffffffffffffffffffffffff1673ffffffffffffffffffffffffffffffffffffffff1681526020019081526020015f20819055505080806001019150506101da565b505f67ffffffffffffffff81111561029157610290610852565b5b6040519080825280602002602001820160405280156102bf5781602001602082028036833780820191505090505b50600190805190602001906102d59291906105d4565b505f3373ffffffffffffffffffffffffffffffffffffffff16476040516102fb906108ac565b5f6040518083038185875af1925050503d805f8114610335576040519150601f19603f3d011682016040523d82523d5f602084013e61033a565b606091505b505090508061037e576040517f08c379a00000000000000000000000000000000000000000000000000000000081526004016103759061090a565b60405180910390fd5b50565b60035f9054906101000a900473ffffffffffffffffffffffffffffffffffffffff1681565b6002602052805f5260405f205f915090505481565b5f546103c6346104f7565b1015610407576040517f08c379a00000000000000000000000000000000000000000000000000000000081526004016103fe90610972565b60405180910390fd5b600133908060018154018082558091505060019003905f5260205f20015f9091909190916101000a81548173ffffffffffffffffffffffffffffffffffffffff021916908373ffffffffffffffffffffffffffffffffffffffff1602179055503460025f3373ffffffffffffffffffffffffffffffffffffffff1673ffffffffffffffffffffffffffffffffffffffff1681526020019081526020015f205f8282546104b391906109bd565b92505081905550565b600181815481106104cb575f80fd5b905f5260205f20015f915054906101000a900473ffffffffffffffffffffffffffffffffffffffff1681565b5f8061050161052f565b90505f670de0b6b3a7640000848361051991906109f0565b6105239190610a5e565b90508092505050919050565b5f80735f4ec3df9cbd43714fe2740f5e3616155c5b841990505f8173ffffffffffffffffffffffffffffffffffffffff1663feaf968c6040518163ffffffff1660e01b815260040160a060405180830381865afa158015610592573d5f803e3d5ffd5b505050506040513d601f19601f820116820180604052508101906105b69190610b14565b5050509150506402540be400816105cd9190610b8b565b9250505090565b828054828255905f5260205f2090810192821561064a579160200282015b82811115610649578251825f6101000a81548173ffffffffffffffffffffffffffffffffffffffff021916908373ffffffffffffffffffffffffffffffffffffffff160217905550916020019190600101906105f2565b5b509050610657919061065b565b5090565b5b80821115610672575f815f90555060010161065c565b5090565b5f819050919050565b61068881610676565b82525050565b5f6020820190506106a15f83018461067f565b92915050565b5f73ffffffffffffffffffffffffffffffffffffffff82169050919050565b5f6106d0826106a7565b9050919050565b6106e0816106c6565b82525050565b5f6020820190506106f95f8301846106d7565b92915050565b5f80fd5b61070c816106c6565b8114610716575f80fd5b50565b5f8135905061072781610703565b92915050565b5f60208284031215610742576107416106ff565b5b5f61074f84828501610719565b91505092915050565b61076181610676565b811461076b575f80fd5b50565b5f8135905061077c81610758565b92915050565b5f60208284031215610797576107966106ff565b5b5f6107a48482850161076e565b91505092915050565b5f82825260208201905092915050565b7f4d75737420626520746865206f776e65720000000000000000000000000000005f82015250565b5f6107f16011836107ad565b91506107fc826107bd565b602082019050919050565b5f6020820190508181035f83015261081e816107e5565b9050919050565b7f4e487b71000000000000000000000000000000000000000000000000000000005f52603260045260245ffd5b7f4e487b71000000000000000000000000000000000000000000000000000000005f52604160045260245ffd5b5f81905092915050565b50565b5f6108975f8361087f565b91506108a282610889565b5f82019050919050565b5f6108b68261088c565b9150819050919050565b7f63616c6c206661696c65640000000000000000000000000000000000000000005f82015250565b5f6108f4600b836107ad565b91506108ff826108c0565b602082019050919050565b5f6020820190508181035f830152610921816108e8565b9050919050565b7f4469646e27742073656e6420656e6e6f756768206574686572000000000000005f82015250565b5f61095c6019836107ad565b915061096782610928565b602082019050919050565b5f6020820190508181035f83015261098981610950565b9050919050565b7f4e487b71000000000000000000000000000000000000000000000000000000005f52601160045260245ffd5b5f6109c782610676565b91506109d283610676565b92508282019050808211156109ea576109e9610990565b5b92915050565b5f6109fa82610676565b9150610a0583610676565b9250828202610a1381610676565b91508282048414831517610a2a57610a29610990565b5b5092915050565b7f4e487b71000000000000000000000000000000000000000000000000000000005f52601260045260245ffd5b5f610a6882610676565b9150610a7383610676565b925082610a8357610a82610a31565b5b828204905092915050565b5f69ffffffffffffffffffff82169050919050565b610aac81610a8e565b8114610ab6575f80fd5b50565b5f81519050610ac781610aa3565b92915050565b5f819050919050565b610adf81610acd565b8114610ae9575f80fd5b50565b5f81519050610afa81610ad6565b92915050565b5f81519050610b0e81610758565b92915050565b5f805f805f60a08688031215610b2d57610b2c6106ff565b5b5f610b3a88828901610ab9565b9550506020610b4b88828901610aec565b9450506040610b5c88828901610b00565b9350506060610b6d88828901610b00565b9250506080610b7e88828901610ab9565b9150509295509295909350565b5f610b9582610acd565b9150610ba083610acd565b9250828202610bae81610acd565b91507f800000000000000000000000000000000000000000000000000000000000000084145f84121615610be557610be4610990565b5b8282058414831517610bfa57610bf9610990565b5b509291505056fea264697066735822122072ffd60da8231c1a0f356df92e04c600d80866bafcb2592848a88a148f2549cd64736f6c634300081a0033",
					"opcodes": "PUSH1 0x80 PUSH1 0x40 MSTORE PUSH8 0x4563918244F40000 PUSH0 SSTORE CALLVALUE DUP1 ISZERO PUSH1 0x19 JUMPI PUSH0 DUP1 REVERT JUMPDEST POP CALLER PUSH1 0x3 PUSH0 PUSH2 0x100 EXP DUP2 SLOAD DUP2 PUSH20 0xFFFFFFFFFFFFFFFFFFFFFFFFFFFFFFFFFFFFFFFF MUL NOT AND SWAP1 DUP4 PUSH20 0xFFFFFFFFFFFFFFFFFFFFFFFFFFFFFFFFFFFFFFFF AND MUL OR SWAP1 SSTORE POP PUSH2 0xC37 DUP1 PUSH2 0x67 PUSH0 CODECOPY PUSH0 RETURN INVALID PUSH1 0x80 PUSH1 0x40 MSTORE PUSH1 0x4 CALLDATASIZE LT PUSH2 0x54 JUMPI PUSH0 CALLDATALOAD PUSH1 0xE0 SHR DUP1 PUSH4 0x98DE820 EQ PUSH2 0x58 JUMPI DUP1 PUSH4 0x3CCFD60B EQ PUSH2 0x82 JUMPI DUP1 PUSH4 0x8DA5CB5B EQ PUSH2 0x98 JUMPI DUP1 PUSH4 0xA42D06AC EQ PUSH2 0xC2 JUMPI DUP1 PUSH4 0xB60D4288 EQ PUSH2 0xFE JUMPI DUP1 PUSH4 0xD8E75F62 EQ PUSH2 0x108 JUMPI JUMPDEST PUSH0 DUP1 REVERT JUMPDEST CALLVALUE DUP1 ISZERO PUSH2 0x63 JUMPI PUSH0 DUP1 REVERT JUMPDEST POP PUSH2 0x6C PUSH2 0x144 JUMP JUMPDEST PUSH1 0x40 MLOAD PUSH2 0x79 SWAP2 SWAP1 PUSH2 0x68E JUMP JUMPDEST PUSH1 0x40 MLOAD DUP1 SWAP2 SUB SWAP1 RETURN JUMPDEST CALLVALUE DUP1 ISZERO PUSH2 0x8D JUMPI PUSH0 DUP1 REVERT JUMPDEST POP PUSH2 0x96 PUSH2 0x149 JUMP JUMPDEST STOP JUMPDEST CALLVALUE DUP1 ISZERO PUSH2 0xA3 JUMPI PUSH0 DUP1 REVERT JUMPDEST POP PUSH2 0xAC PUSH2 0x381 JUMP JUMPDEST PUSH1 0x40 MLOAD PUSH2 0xB9 SWAP2 SWAP1 PUSH2 0x6E6 JUMP JUMPDEST PUSH1 0x40 MLOAD DUP1 SWAP2 SUB SWAP1 RETURN JUMPDEST CALLVALUE DUP1 ISZERO PUSH2 0xCD JUMPI PUSH0 DUP1 REVERT JUMPDEST POP PUSH2 0xE8 PUSH1 0x4 DUP1 CALLDATASIZE SUB DUP2 ADD SWAP1 PUSH2 0xE3 SWAP2 SWAP1 PUSH2 0x72D JUMP JUMPDEST PUSH2 0x3A6 JUMP JUMPDEST PUSH1 0x40 MLOAD PUSH2 0xF5 SWAP2 SWAP1 PUSH2 0x68E JUMP JUMPDEST PUSH1 0x40 MLOAD DUP1 SWAP2 SUB SWAP1 RETURN JUMPDEST PUSH2 0x106 PUSH2 0x3BB JUMP JUMPDEST STOP JUMPDEST CALLVALUE DUP1 ISZERO PUSH2 0x113 JUMPI PUSH0 DUP1 REVERT JUMPDEST POP PUSH2 0x12E PUSH1 0x4 DUP1 CALLDATASIZE SUB DUP2 ADD SWAP1 PUSH2 0x129 SWAP2 SWAP1 PUSH2 0x782 JUMP JUMPDEST PUSH2 0x4BC JUMP JUMPDEST PUSH1 0x40 MLOAD PUSH2 0x13B SWAP2 SWAP1 PUSH2 0x6E6 JUMP JUMPDEST PUSH1 0x40 MLOAD DUP1 SWAP2 SUB SWAP1 RETURN JUMPDEST PUSH0 SLOAD DUP2 JUMP JUMPDEST PUSH1 0x3 PUSH0 SWAP1 SLOAD SWAP1 PUSH2 0x100 EXP SWAP1 DIV PUSH20 0xFFFFFFFFFFFFFFFFFFFFFFFFFFFFFFFFFFFFFFFF AND PUSH20 0xFFFFFFFFFFFFFFFFFFFFFFFFFFFFFFFFFFFFFFFF AND CALLER PUSH20 0xFFFFFFFFFFFFFFFFFFFFFFFFFFFFFFFFFFFFFFFF AND EQ PUSH2 0x1D8 JUMPI PUSH1 0x40 MLOAD PUSH32 0x8C379A000000000000000000000000000000000000000000000000000000000 DUP2 MSTORE PUSH1 0x4 ADD PUSH2 0x1CF SWAP1 PUSH2 0x807 JUMP JUMPDEST PUSH1 0x40 MLOAD DUP1 SWAP2 SUB SWAP1 REVERT JUMPDEST PUSH0 JUMPDEST PUSH1 0x1 DUP1 SLOAD SWAP1 POP DUP2 LT ISZERO PUSH2 0x276 JUMPI PUSH0 PUSH1 0x1 DUP3 DUP2 SLOAD DUP2 LT PUSH2 0x1FC JUMPI PUSH2 0x1FB PUSH2 0x825 JUMP JUMPDEST JUMPDEST SWAP1 PUSH0 MSTORE PUSH1 0x20 PUSH0 KECCAK256 ADD PUSH0 SWAP1 SLOAD SWAP1 PUSH2 0x100 EXP SWAP1 DIV PUSH20 0xFFFFFFFFFFFFFFFFFFFFFFFFFFFFFFFFFFFFFFFF AND SWAP1 POP PUSH0 PUSH1 0x2 PUSH0 DUP4 PUSH20 0xFFFFFFFFFFFFFFFFFFFFFFFFFFFFFFFFFFFFFFFF AND PUSH20 0xFFFFFFFFFFFFFFFFFFFFFFFFFFFFFFFFFFFFFFFF AND DUP2 MSTORE PUSH1 0x20 ADD SWAP1 DUP2 MSTORE PUSH1 0x20 ADD PUSH0 KECCAK256 DUP2 SWAP1 SSTORE POP POP DUP1 DUP1 PUSH1 0x1 ADD SWAP2 POP POP PUSH2 0x1DA JUMP JUMPDEST POP PUSH0 PUSH8 0xFFFFFFFFFFFFFFFF DUP2 GT ISZERO PUSH2 0x291 JUMPI PUSH2 0x290 PUSH2 0x852 JUMP JUMPDEST JUMPDEST PUSH1 0x40 MLOAD SWAP1 DUP1 DUP3 MSTORE DUP1 PUSH1 0x20 MUL PUSH1 0x20 ADD DUP3 ADD PUSH1 0x40 MSTORE DUP1 ISZERO PUSH2 0x2BF JUMPI DUP2 PUSH1 0x20 ADD PUSH1 0x20 DUP3 MUL DUP1 CALLDATASIZE DUP4 CALLDATACOPY DUP1 DUP3 ADD SWAP2 POP POP SWAP1 POP JUMPDEST POP PUSH1 0x1 SWAP1 DUP1 MLOAD SWAP1 PUSH1 0x20 ADD SWAP1 PUSH2 0x2D5 SWAP3 SWAP2 SWAP1 PUSH2 0x5D4 JUMP JUMPDEST POP PUSH0 CALLER PUSH20 0xFFFFFFFFFFFFFFFFFFFFFFFFFFFFFFFFFFFFFFFF AND SELFBALANCE PUSH1 0x40 MLOAD PUSH2 0x2FB SWAP1 PUSH2 0x8AC JUMP JUMPDEST PUSH0 PUSH1 0x40 MLOAD DUP1 DUP4 SUB DUP2 DUP6 DUP8 GAS CALL SWAP3 POP POP POP RETURNDATASIZE DUP1 PUSH0 DUP2 EQ PUSH2 0x335 JUMPI PUSH1 0x40 MLOAD SWAP2 POP PUSH1 0x1F NOT PUSH1 0x3F RETURNDATASIZE ADD AND DUP3 ADD PUSH1 0x40 MSTORE RETURNDATASIZE DUP3 MSTORE RETURNDATASIZE PUSH0 PUSH1 0x20 DUP5 ADD RETURNDATACOPY PUSH2 0x33A JUMP JUMPDEST PUSH1 0x60 SWAP2 POP JUMPDEST POP POP SWAP1 POP DUP1 PUSH2 0x37E JUMPI PUSH1 0x40 MLOAD PUSH32 0x8C379A000000000000000000000000000000000000000000000000000000000 DUP2 MSTORE PUSH1 0x4 ADD PUSH2 0x375 SWAP1 PUSH2 0x90A JUMP JUMPDEST PUSH1 0x40 MLOAD DUP1 SWAP2 SUB SWAP1 REVERT JUMPDEST POP JUMP JUMPDEST PUSH1 0x3 PUSH0 SWAP1 SLOAD SWAP1 PUSH2 0x100 EXP SWAP1 DIV PUSH20 0xFFFFFFFFFFFFFFFFFFFFFFFFFFFFFFFFFFFFFFFF AND DUP2 JUMP JUMPDEST PUSH1 0x2 PUSH1 0x20 MSTORE DUP1 PUSH0 MSTORE PUSH1 0x40 PUSH0 KECCAK256 PUSH0 SWAP2 POP SWAP1 POP SLOAD DUP2 JUMP JUMPDEST PUSH0 SLOAD PUSH2 0x3C6 CALLVALUE PUSH2 0x4F7 JUMP JUMPDEST LT ISZERO PUSH2 0x407 JUMPI PUSH1 0x40 MLOAD PUSH32 0x8C379A000000000000000000000000000000000000000000000000000000000 DUP2 MSTORE PUSH1 0x4 ADD PUSH2 0x3FE SWAP1 PUSH2 0x972 JUMP JUMPDEST PUSH1 0x40 MLOAD DUP1 SWAP2 SUB SWAP1 REVERT JUMPDEST PUSH1 0x1 CALLER SWAP1 DUP1 PUSH1 0x1 DUP2 SLOAD ADD DUP1 DUP3 SSTORE DUP1 SWAP2 POP POP PUSH1 0x1 SWAP1 SUB SWAP1 PUSH0 MSTORE PUSH1 0x20 PUSH0 KECCAK256 ADD PUSH0 SWAP1 SWAP2 SWAP1 SWAP2 SWAP1 SWAP2 PUSH2 0x100 EXP DUP2 SLOAD DUP2 PUSH20 0xFFFFFFFFFFFFFFFFFFFFFFFFFFFFFFFFFFFFFFFF MUL NOT AND SWAP1 DUP4 PUSH20 0xFFFFFFFFFFFFFFFFFFFFFFFFFFFFFFFFFFFFFFFF AND MUL OR SWAP1 SSTORE POP CALLVALUE PUSH1 0x2 PUSH0 CALLER PUSH20 0xFFFFFFFFFFFFFFFFFFFFFFFFFFFFFFFFFFFFFFFF AND PUSH20 0xFFFFFFFFFFFFFFFFFFFFFFFFFFFFFFFFFFFFFFFF AND DUP2 MSTORE PUSH1 0x20 ADD SWAP1 DUP2 MSTORE PUSH1 0x20 ADD PUSH0 KECCAK256 PUSH0 DUP3 DUP3 SLOAD PUSH2 0x4B3 SWAP2 SWAP1 PUSH2 0x9BD JUMP JUMPDEST SWAP3 POP POP DUP2 SWAP1 SSTORE POP JUMP JUMPDEST PUSH1 0x1 DUP2 DUP2 SLOAD DUP2 LT PUSH2 0x4CB JUMPI PUSH0 DUP1 REVERT JUMPDEST SWAP1 PUSH0 MSTORE PUSH1 0x20 PUSH0 KECCAK256 ADD PUSH0 SWAP2 POP SLOAD SWAP1 PUSH2 0x100 EXP SWAP1 DIV PUSH20 0xFFFFFFFFFFFFFFFFFFFFFFFFFFFFFFFFFFFFFFFF AND DUP2 JUMP JUMPDEST PUSH0 DUP1 PUSH2 0x501 PUSH2 0x52F JUMP JUMPDEST SWAP1 POP PUSH0 PUSH8 0xDE0B6B3A7640000 DUP5 DUP4 PUSH2 0x519 SWAP2 SWAP1 PUSH2 0x9F0 JUMP JUMPDEST PUSH2 0x523 SWAP2 SWAP1 PUSH2 0xA5E JUMP JUMPDEST SWAP1 POP DUP1 SWAP3 POP POP POP SWAP2 SWAP1 POP JUMP JUMPDEST PUSH0 DUP1 PUSH20 0x5F4EC3DF9CBD43714FE2740F5E3616155C5B8419 SWAP1 POP PUSH0 DUP2 PUSH20 0xFFFFFFFFFFFFFFFFFFFFFFFFFFFFFFFFFFFFFFFF AND PUSH4 0xFEAF968C PUSH1 0x40 MLOAD DUP2 PUSH4 0xFFFFFFFF AND PUSH1 0xE0 SHL DUP2 MSTORE PUSH1 0x4 ADD PUSH1 0xA0 PUSH1 0x40 MLOAD DUP1 DUP4 SUB DUP2 DUP7 GAS STATICCALL ISZERO DUP1 ISZERO PUSH2 0x592 JUMPI RETURNDATASIZE PUSH0 DUP1 RETURNDATACOPY RETURNDATASIZE PUSH0 REVERT JUMPDEST POP POP POP POP PUSH1 0x40 MLOAD RETURNDATASIZE PUSH1 0x1F NOT PUSH1 0x1F DUP3 ADD AND DUP3 ADD DUP1 PUSH1 0x40 MSTORE POP DUP2 ADD SWAP1 PUSH2 0x5B6 SWAP2 SWAP1 PUSH2 0xB14 JUMP JUMPDEST POP POP POP SWAP2 POP POP PUSH5 0x2540BE400 DUP2 PUSH2 0x5CD SWAP2 SWAP1 PUSH2 0xB8B JUMP JUMPDEST SWAP3 POP POP POP SWAP1 JUMP JUMPDEST DUP3 DUP1 SLOAD DUP3 DUP3 SSTORE SWAP1 PUSH0 MSTORE PUSH1 0x20 PUSH0 KECCAK256 SWAP1 DUP2 ADD SWAP3 DUP3 ISZERO PUSH2 0x64A JUMPI SWAP2 PUSH1 0x20 MUL DUP3 ADD JUMPDEST DUP3 DUP2 GT ISZERO PUSH2 0x649 JUMPI DUP3 MLOAD DUP3 PUSH0 PUSH2 0x100 EXP DUP2 SLOAD DUP2 PUSH20 0xFFFFFFFFFFFFFFFFFFFFFFFFFFFFFFFFFFFFFFFF MUL NOT AND SWAP1 DUP4 PUSH20 0xFFFFFFFFFFFFFFFFFFFFFFFFFFFFFFFFFFFFFFFF AND MUL OR SWAP1 SSTORE POP SWAP2 PUSH1 0x20 ADD SWAP2 SWAP1 PUSH1 0x1 ADD SWAP1 PUSH2 0x5F2 JUMP JUMPDEST JUMPDEST POP SWAP1 POP PUSH2 0x657 SWAP2 SWAP1 PUSH2 0x65B JUMP JUMPDEST POP SWAP1 JUMP JUMPDEST JUMPDEST DUP1 DUP3 GT ISZERO PUSH2 0x672 JUMPI PUSH0 DUP2 PUSH0 SWAP1 SSTORE POP PUSH1 0x1 ADD PUSH2 0x65C JUMP JUMPDEST POP SWAP1 JUMP JUMPDEST PUSH0 DUP2 SWAP1 POP SWAP2 SWAP1 POP JUMP JUMPDEST PUSH2 0x688 DUP2 PUSH2 0x676 JUMP JUMPDEST DUP3 MSTORE POP POP JUMP JUMPDEST PUSH0 PUSH1 0x20 DUP3 ADD SWAP1 POP PUSH2 0x6A1 PUSH0 DUP4 ADD DUP5 PUSH2 0x67F JUMP JUMPDEST SWAP3 SWAP2 POP POP JUMP JUMPDEST PUSH0 PUSH20 0xFFFFFFFFFFFFFFFFFFFFFFFFFFFFFFFFFFFFFFFF DUP3 AND SWAP1 POP SWAP2 SWAP1 POP JUMP JUMPDEST PUSH0 PUSH2 0x6D0 DUP3 PUSH2 0x6A7 JUMP JUMPDEST SWAP1 POP SWAP2 SWAP1 POP JUMP JUMPDEST PUSH2 0x6E0 DUP2 PUSH2 0x6C6 JUMP JUMPDEST DUP3 MSTORE POP POP JUMP JUMPDEST PUSH0 PUSH1 0x20 DUP3 ADD SWAP1 POP PUSH2 0x6F9 PUSH0 DUP4 ADD DUP5 PUSH2 0x6D7 JUMP JUMPDEST SWAP3 SWAP2 POP POP JUMP JUMPDEST PUSH0 DUP1 REVERT JUMPDEST PUSH2 0x70C DUP2 PUSH2 0x6C6 JUMP JUMPDEST DUP2 EQ PUSH2 0x716 JUMPI PUSH0 DUP1 REVERT JUMPDEST POP JUMP JUMPDEST PUSH0 DUP2 CALLDATALOAD SWAP1 POP PUSH2 0x727 DUP2 PUSH2 0x703 JUMP JUMPDEST SWAP3 SWAP2 POP POP JUMP JUMPDEST PUSH0 PUSH1 0x20 DUP3 DUP5 SUB SLT ISZERO PUSH2 0x742 JUMPI PUSH2 0x741 PUSH2 0x6FF JUMP JUMPDEST JUMPDEST PUSH0 PUSH2 0x74F DUP5 DUP3 DUP6 ADD PUSH2 0x719 JUMP JUMPDEST SWAP2 POP POP SWAP3 SWAP2 POP POP JUMP JUMPDEST PUSH2 0x761 DUP2 PUSH2 0x676 JUMP JUMPDEST DUP2 EQ PUSH2 0x76B JUMPI PUSH0 DUP1 REVERT JUMPDEST POP JUMP JUMPDEST PUSH0 DUP2 CALLDATALOAD SWAP1 POP PUSH2 0x77C DUP2 PUSH2 0x758 JUMP JUMPDEST SWAP3 SWAP2 POP POP JUMP JUMPDEST PUSH0 PUSH1 0x20 DUP3 DUP5 SUB SLT ISZERO PUSH2 0x797 JUMPI PUSH2 0x796 PUSH2 0x6FF JUMP JUMPDEST JUMPDEST PUSH0 PUSH2 0x7A4 DUP5 DUP3 DUP6 ADD PUSH2 0x76E JUMP JUMPDEST SWAP2 POP POP SWAP3 SWAP2 POP POP JUMP JUMPDEST PUSH0 DUP3 DUP3 MSTORE PUSH1 0x20 DUP3 ADD SWAP1 POP SWAP3 SWAP2 POP POP JUMP JUMPDEST PUSH32 0x4D75737420626520746865206F776E6572000000000000000000000000000000 PUSH0 DUP3 ADD MSTORE POP JUMP JUMPDEST PUSH0 PUSH2 0x7F1 PUSH1 0x11 DUP4 PUSH2 0x7AD JUMP JUMPDEST SWAP2 POP PUSH2 0x7FC DUP3 PUSH2 0x7BD JUMP JUMPDEST PUSH1 0x20 DUP3 ADD SWAP1 POP SWAP2 SWAP1 POP JUMP JUMPDEST PUSH0 PUSH1 0x20 DUP3 ADD SWAP1 POP DUP2 DUP2 SUB PUSH0 DUP4 ADD MSTORE PUSH2 0x81E DUP2 PUSH2 0x7E5 JUMP JUMPDEST SWAP1 POP SWAP2 SWAP1 POP JUMP JUMPDEST PUSH32 0x4E487B7100000000000000000000000000000000000000000000000000000000 PUSH0 MSTORE PUSH1 0x32 PUSH1 0x4 MSTORE PUSH1 0x24 PUSH0 REVERT JUMPDEST PUSH32 0x4E487B7100000000000000000000000000000000000000000000000000000000 PUSH0 MSTORE PUSH1 0x41 PUSH1 0x4 MSTORE PUSH1 0x24 PUSH0 REVERT JUMPDEST PUSH0 DUP2 SWAP1 POP SWAP3 SWAP2 POP POP JUMP JUMPDEST POP JUMP JUMPDEST PUSH0 PUSH2 0x897 PUSH0 DUP4 PUSH2 0x87F JUMP JUMPDEST SWAP2 POP PUSH2 0x8A2 DUP3 PUSH2 0x889 JUMP JUMPDEST PUSH0 DUP3 ADD SWAP1 POP SWAP2 SWAP1 POP JUMP JUMPDEST PUSH0 PUSH2 0x8B6 DUP3 PUSH2 0x88C JUMP JUMPDEST SWAP2 POP DUP2 SWAP1 POP SWAP2 SWAP1 POP JUMP JUMPDEST PUSH32 0x63616C6C206661696C6564000000000000000000000000000000000000000000 PUSH0 DUP3 ADD MSTORE POP JUMP JUMPDEST PUSH0 PUSH2 0x8F4 PUSH1 0xB DUP4 PUSH2 0x7AD JUMP JUMPDEST SWAP2 POP PUSH2 0x8FF DUP3 PUSH2 0x8C0 JUMP JUMPDEST PUSH1 0x20 DUP3 ADD SWAP1 POP SWAP2 SWAP1 POP JUMP JUMPDEST PUSH0 PUSH1 0x20 DUP3 ADD SWAP1 POP DUP2 DUP2 SUB PUSH0 DUP4 ADD MSTORE PUSH2 0x921 DUP2 PUSH2 0x8E8 JUMP JUMPDEST SWAP1 POP SWAP2 SWAP1 POP JUMP JUMPDEST PUSH32 0x4469646E27742073656E6420656E6E6F75676820657468657200000000000000 PUSH0 DUP3 ADD MSTORE POP JUMP JUMPDEST PUSH0 PUSH2 0x95C PUSH1 0x19 DUP4 PUSH2 0x7AD JUMP JUMPDEST SWAP2 POP PUSH2 0x967 DUP3 PUSH2 0x928 JUMP JUMPDEST PUSH1 0x20 DUP3 ADD SWAP1 POP SWAP2 SWAP1 POP JUMP JUMPDEST PUSH0 PUSH1 0x20 DUP3 ADD SWAP1 POP DUP2 DUP2 SUB PUSH0 DUP4 ADD MSTORE PUSH2 0x989 DUP2 PUSH2 0x950 JUMP JUMPDEST SWAP1 POP SWAP2 SWAP1 POP JUMP JUMPDEST PUSH32 0x4E487B7100000000000000000000000000000000000000000000000000000000 PUSH0 MSTORE PUSH1 0x11 PUSH1 0x4 MSTORE PUSH1 0x24 PUSH0 REVERT JUMPDEST PUSH0 PUSH2 0x9C7 DUP3 PUSH2 0x676 JUMP JUMPDEST SWAP2 POP PUSH2 0x9D2 DUP4 PUSH2 0x676 JUMP JUMPDEST SWAP3 POP DUP3 DUP3 ADD SWAP1 POP DUP1 DUP3 GT ISZERO PUSH2 0x9EA JUMPI PUSH2 0x9E9 PUSH2 0x990 JUMP JUMPDEST JUMPDEST SWAP3 SWAP2 POP POP JUMP JUMPDEST PUSH0 PUSH2 0x9FA DUP3 PUSH2 0x676 JUMP JUMPDEST SWAP2 POP PUSH2 0xA05 DUP4 PUSH2 0x676 JUMP JUMPDEST SWAP3 POP DUP3 DUP3 MUL PUSH2 0xA13 DUP2 PUSH2 0x676 JUMP JUMPDEST SWAP2 POP DUP3 DUP3 DIV DUP5 EQ DUP4 ISZERO OR PUSH2 0xA2A JUMPI PUSH2 0xA29 PUSH2 0x990 JUMP JUMPDEST JUMPDEST POP SWAP3 SWAP2 POP POP JUMP JUMPDEST PUSH32 0x4E487B7100000000000000000000000000000000000000000000000000000000 PUSH0 MSTORE PUSH1 0x12 PUSH1 0x4 MSTORE PUSH1 0x24 PUSH0 REVERT JUMPDEST PUSH0 PUSH2 0xA68 DUP3 PUSH2 0x676 JUMP JUMPDEST SWAP2 POP PUSH2 0xA73 DUP4 PUSH2 0x676 JUMP JUMPDEST SWAP3 POP DUP3 PUSH2 0xA83 JUMPI PUSH2 0xA82 PUSH2 0xA31 JUMP JUMPDEST JUMPDEST DUP3 DUP3 DIV SWAP1 POP SWAP3 SWAP2 POP POP JUMP JUMPDEST PUSH0 PUSH10 0xFFFFFFFFFFFFFFFFFFFF DUP3 AND SWAP1 POP SWAP2 SWAP1 POP JUMP JUMPDEST PUSH2 0xAAC DUP2 PUSH2 0xA8E JUMP JUMPDEST DUP2 EQ PUSH2 0xAB6 JUMPI PUSH0 DUP1 REVERT JUMPDEST POP JUMP JUMPDEST PUSH0 DUP2 MLOAD SWAP1 POP PUSH2 0xAC7 DUP2 PUSH2 0xAA3 JUMP JUMPDEST SWAP3 SWAP2 POP POP JUMP JUMPDEST PUSH0 DUP2 SWAP1 POP SWAP2 SWAP1 POP JUMP JUMPDEST PUSH2 0xADF DUP2 PUSH2 0xACD JUMP JUMPDEST DUP2 EQ PUSH2 0xAE9 JUMPI PUSH0 DUP1 REVERT JUMPDEST POP JUMP JUMPDEST PUSH0 DUP2 MLOAD SWAP1 POP PUSH2 0xAFA DUP2 PUSH2 0xAD6 JUMP JUMPDEST SWAP3 SWAP2 POP POP JUMP JUMPDEST PUSH0 DUP2 MLOAD SWAP1 POP PUSH2 0xB0E DUP2 PUSH2 0x758 JUMP JUMPDEST SWAP3 SWAP2 POP POP JUMP JUMPDEST PUSH0 DUP1 PUSH0 DUP1 PUSH0 PUSH1 0xA0 DUP7 DUP9 SUB SLT ISZERO PUSH2 0xB2D JUMPI PUSH2 0xB2C PUSH2 0x6FF JUMP JUMPDEST JUMPDEST PUSH0 PUSH2 0xB3A DUP9 DUP3 DUP10 ADD PUSH2 0xAB9 JUMP JUMPDEST SWAP6 POP POP PUSH1 0x20 PUSH2 0xB4B DUP9 DUP3 DUP10 ADD PUSH2 0xAEC JUMP JUMPDEST SWAP5 POP POP PUSH1 0x40 PUSH2 0xB5C DUP9 DUP3 DUP10 ADD PUSH2 0xB00 JUMP JUMPDEST SWAP4 POP POP PUSH1 0x60 PUSH2 0xB6D DUP9 DUP3 DUP10 ADD PUSH2 0xB00 JUMP JUMPDEST SWAP3 POP POP PUSH1 0x80 PUSH2 0xB7E DUP9 DUP3 DUP10 ADD PUSH2 0xAB9 JUMP JUMPDEST SWAP2 POP POP SWAP3 SWAP6 POP SWAP3 SWAP6 SWAP1 SWAP4 POP JUMP JUMPDEST PUSH0 PUSH2 0xB95 DUP3 PUSH2 0xACD JUMP JUMPDEST SWAP2 POP PUSH2 0xBA0 DUP4 PUSH2 0xACD JUMP JUMPDEST SWAP3 POP DUP3 DUP3 MUL PUSH2 0xBAE DUP2 PUSH2 0xACD JUMP JUMPDEST SWAP2 POP PUSH32 0x8000000000000000000000000000000000000000000000000000000000000000 DUP5 EQ PUSH0 DUP5 SLT AND ISZERO PUSH2 0xBE5 JUMPI PUSH2 0xBE4 PUSH2 0x990 JUMP JUMPDEST JUMPDEST DUP3 DUP3 SDIV DUP5 EQ DUP4 ISZERO OR PUSH2 0xBFA JUMPI PUSH2 0xBF9 PUSH2 0x990 JUMP JUMPDEST JUMPDEST POP SWAP3 SWAP2 POP POP JUMP INVALID LOG2 PUSH5 0x6970667358 0x22 SLT KECCAK256 PUSH19 0xFFD60DA8231C1A0F356DF92E04C600D80866BA 0xFC 0xB2 MSIZE 0x28 BASEFEE 0xA8 DUP11 EQ DUP16 0x25 BLOBHASH 0xCD PUSH5 0x736F6C6343 STOP ADDMOD BYTE STOP CALLER "
				},
				"gasEstimates": {
					"creation": {
						"codeDepositCost": "625400",
						"executionCost": "47025",
						"totalCost": "672425"
					},
					"external": {
						"adressToAmountFounded(address)": "2846",
						"founders(uint256)": "5032",
						"fund()": "infinite",
						"minimumUsd()": "2402",
						"owner()": "2530",
						"withdraw()": "infinite"
					}
				},
				"methodIdentifiers": {
					"adressToAmountFounded(address)": "a42d06ac",
					"founders(uint256)": "d8e75f62",
					"fund()": "b60d4288",
					"minimumUsd()": "098de820",
					"owner()": "8da5cb5b",
					"withdraw()": "3ccfd60b"
				}
			},
			"storageLayout": {
				"storage": [
					{
						"astId": 55,
						"contract": "contracts/FundMe.sol:FundMe",
						"label": "minimumUsd",
						"offset": 0,
						"slot": "0",
						"type": "t_uint256"
					},
					{
						"astId": 58,
						"contract": "contracts/FundMe.sol:FundMe",
						"label": "founders",
						"offset": 0,
						"slot": "1",
						"type": "t_array(t_address)dyn_storage"
					},
					{
						"astId": 62,
						"contract": "contracts/FundMe.sol:FundMe",
						"label": "adressToAmountFounded",
						"offset": 0,
						"slot": "2",
						"type": "t_mapping(t_address,t_uint256)"
					},
					{
						"astId": 64,
						"contract": "contracts/FundMe.sol:FundMe",
						"label": "owner",
						"offset": 0,
						"slot": "3",
						"type": "t_address"
					}
				],
				"types": {
					"t_address": {
						"encoding": "inplace",
						"label": "address",
						"numberOfBytes": "20"
					},
					"t_array(t_address)dyn_storage": {
						"base": "t_address",
						"encoding": "dynamic_array",
						"label": "address[]",
						"numberOfBytes": "32"
					},
					"t_mapping(t_address,t_uint256)": {
						"encoding": "mapping",
						"key": "t_address",
						"label": "mapping(address => uint256)",
						"numberOfBytes": "32",
						"value": "t_uint256"
					},
					"t_uint256": {
						"encoding": "inplace",
						"label": "uint256",
						"numberOfBytes": "32"
					}
				}
			},
			"userdoc": {
				"kind": "user",
				"methods": {},
				"version": 1
			}
		}
	}
}