{
	"contracts/FundMe.sol": {
		"FundMe": {
			"abi": [
				{
					"inputs": [],
					"name": "fund",
					"outputs": [],
					"stateMutability": "payable",
					"type": "function"
				},
				{
					"inputs": [],
					"name": "withdraw",
					"outputs": [],
					"stateMutability": "nonpayable",
					"type": "function"
				}
			],
			"devdoc": {
				"kind": "dev",
				"methods": {},
				"version": 1
			},
			"evm": {
				"assembly": "    /* \"contracts/FundMe.sol\":58:226  contract FundMe {... */\n  mstore(0x40, 0x80)\n  callvalue\n  dup1\n  iszero\n  tag_1\n  jumpi\n  0x00\n  dup1\n  revert\ntag_1:\n  pop\n  dataSize(sub_0)\n  dup1\n  dataOffset(sub_0)\n  0x00\n  codecopy\n  0x00\n  return\nstop\n\nsub_0: assembly {\n        /* \"contracts/FundMe.sol\":58:226  contract FundMe {... */\n      mstore(0x40, 0x80)\n      jumpi(tag_1, lt(calldatasize, 0x04))\n      shr(0xe0, calldataload(0x00))\n      dup1\n      0x3ccfd60b\n      eq\n      tag_2\n      jumpi\n      dup1\n      0xb60d4288\n      eq\n      tag_3\n      jumpi\n    tag_1:\n      0x00\n      dup1\n      revert\n        /* \"contracts/FundMe.sol\":189:224  function withdraw() public {... */\n    tag_2:\n      callvalue\n      dup1\n      iszero\n      tag_4\n      jumpi\n      0x00\n      dup1\n      revert\n    tag_4:\n      pop\n      tag_5\n      tag_6\n      jump\t// in\n    tag_5:\n      stop\n        /* \"contracts/FundMe.sol\":81:183  function fund() public payable {... */\n    tag_3:\n      tag_7\n      tag_8\n      jump\t// in\n    tag_7:\n      stop\n        /* \"contracts/FundMe.sol\":189:224  function withdraw() public {... */\n    tag_6:\n      jump\t// out\n        /* \"contracts/FundMe.sol\":81:183  function fund() public payable {... */\n    tag_8:\n        /* \"contracts/FundMe.sol\":142:146  1e18 */\n      0x0de0b6b3a7640000\n        /* \"contracts/FundMe.sol\":130:139  msg.value */\n      callvalue\n        /* \"contracts/FundMe.sol\":130:146  msg.value > 1e18 */\n      gt\n        /* \"contracts/FundMe.sol\":122:176  require(msg.value > 1e18, \"Didn't send ennough ether\") */\n      tag_11\n      jumpi\n      mload(0x40)\n      0x08c379a000000000000000000000000000000000000000000000000000000000\n      dup2\n      mstore\n      0x04\n      add\n      tag_12\n      swap1\n      tag_13\n      jump\t// in\n    tag_12:\n      mload(0x40)\n      dup1\n      swap2\n      sub\n      swap1\n      revert\n    tag_11:\n        /* \"contracts/FundMe.sol\":81:183  function fund() public payable {... */\n      jump\t// out\n        /* \"#utility.yul\":7:176   */\n    tag_14:\n        /* \"#utility.yul\":91:102   */\n      0x00\n        /* \"#utility.yul\":125:131   */\n      dup3\n        /* \"#utility.yul\":120:123   */\n      dup3\n        /* \"#utility.yul\":113:132   */\n      mstore\n        /* \"#utility.yul\":165:169   */\n      0x20\n        /* \"#utility.yul\":160:163   */\n      dup3\n        /* \"#utility.yul\":156:170   */\n      add\n        /* \"#utility.yul\":141:170   */\n      swap1\n      pop\n        /* \"#utility.yul\":7:176   */\n      swap3\n      swap2\n      pop\n      pop\n      jump\t// out\n        /* \"#utility.yul\":182:357   */\n    tag_15:\n        /* \"#utility.yul\":322:349   */\n      0x4469646e27742073656e6420656e6e6f75676820657468657200000000000000\n        /* \"#utility.yul\":318:319   */\n      0x00\n        /* \"#utility.yul\":310:316   */\n      dup3\n        /* \"#utility.yul\":306:320   */\n      add\n        /* \"#utility.yul\":299:350   */\n      mstore\n        /* \"#utility.yul\":182:357   */\n      pop\n      jump\t// out\n        /* \"#utility.yul\":363:729   */\n    tag_16:\n        /* \"#utility.yul\":505:508   */\n      0x00\n        /* \"#utility.yul\":526:593   */\n      tag_21\n        /* \"#utility.yul\":590:592   */\n      0x19\n        /* \"#utility.yul\":585:588   */\n      dup4\n        /* \"#utility.yul\":526:593   */\n      tag_14\n      jump\t// in\n    tag_21:\n        /* \"#utility.yul\":519:593   */\n      swap2\n      pop\n        /* \"#utility.yul\":602:695   */\n      tag_22\n        /* \"#utility.yul\":691:694   */\n      dup3\n        /* \"#utility.yul\":602:695   */\n      tag_15\n      jump\t// in\n    tag_22:\n        /* \"#utility.yul\":720:722   */\n      0x20\n        /* \"#utility.yul\":715:718   */\n      dup3\n        /* \"#utility.yul\":711:723   */\n      add\n        /* \"#utility.yul\":704:723   */\n      swap1\n      pop\n        /* \"#utility.yul\":363:729   */\n      swap2\n      swap1\n      pop\n      jump\t// out\n        /* \"#utility.yul\":735:1154   */\n    tag_13:\n        /* \"#utility.yul\":901:905   */\n      0x00\n        /* \"#utility.yul\":939:941   */\n      0x20\n        /* \"#utility.yul\":928:937   */\n      dup3\n        /* \"#utility.yul\":924:942   */\n      add\n        /* \"#utility.yul\":916:942   */\n      swap1\n      pop\n        /* \"#utility.yul\":988:997   */\n      dup2\n        /* \"#utility.yul\":982:986   */\n      dup2\n        /* \"#utility.yul\":978:998   */\n      sub\n        /* \"#utility.yul\":974:975   */\n      0x00\n        /* \"#utility.yul\":963:972   */\n      dup4\n        /* \"#utility.yul\":959:976   */\n      add\n        /* \"#utility.yul\":952:999   */\n      mstore\n        /* \"#utility.yul\":1016:1147   */\n      tag_24\n        /* \"#utility.yul\":1142:1146   */\n      dup2\n        /* \"#utility.yul\":1016:1147   */\n      tag_16\n      jump\t// in\n    tag_24:\n        /* \"#utility.yul\":1008:1147   */\n      swap1\n      pop\n        /* \"#utility.yul\":735:1154   */\n      swap2\n      swap1\n      pop\n      jump\t// out\n\n    auxdata: 0xa264697066735822122050fb4196fdedc34d182bbe6425812ad22ff6c54746764c4926311a47f622a95064736f6c634300081a0033\n}\n",
				"bytecode": {
					"linkReferences": {},
					"object": "6080604052348015600e575f80fd5b506101488061001c5f395ff3fe608060405260043610610028575f3560e01c80633ccfd60b1461002c578063b60d428814610042575b5f80fd5b348015610037575f80fd5b5061004061004c565b005b61004a61004e565b005b565b670de0b6b3a76400003411610098576040517f08c379a000000000000000000000000000000000000000000000000000000000815260040161008f906100f4565b60405180910390fd5b565b5f82825260208201905092915050565b7f4469646e27742073656e6420656e6e6f756768206574686572000000000000005f82015250565b5f6100de60198361009a565b91506100e9826100aa565b602082019050919050565b5f6020820190508181035f83015261010b816100d2565b905091905056fea264697066735822122050fb4196fdedc34d182bbe6425812ad22ff6c54746764c4926311a47f622a95064736f6c634300081a0033",
					"opcodes": "PUSH1 0x80 PUSH1 0x40 MSTORE CALLVALUE DUP1 ISZERO PUSH1 0xE JUMPI PUSH0 DUP1 REVERT JUMPDEST POP PUSH2 0x148 DUP1 PUSH2 0x1C PUSH0 CODECOPY PUSH0 RETURN INVALID PUSH1 0x80 PUSH1 0x40 MSTORE PUSH1 0x4 CALLDATASIZE LT PUSH2 0x28 JUMPI PUSH0 CALLDATALOAD PUSH1 0xE0 SHR DUP1 PUSH4 0x3CCFD60B EQ PUSH2 0x2C JUMPI DUP1 PUSH4 0xB60D4288 EQ PUSH2 0x42 JUMPI JUMPDEST PUSH0 DUP1 REVERT JUMPDEST CALLVALUE DUP1 ISZERO PUSH2 0x37 JUMPI PUSH0 DUP1 REVERT JUMPDEST POP PUSH2 0x40 PUSH2 0x4C JUMP JUMPDEST STOP JUMPDEST PUSH2 0x4A PUSH2 0x4E JUMP JUMPDEST STOP JUMPDEST JUMP JUMPDEST PUSH8 0xDE0B6B3A7640000 CALLVALUE GT PUSH2 0x98 JUMPI PUSH1 0x40 MLOAD PUSH32 0x8C379A000000000000000000000000000000000000000000000000000000000 DUP2 MSTORE PUSH1 0x4 ADD PUSH2 0x8F SWAP1 PUSH2 0xF4 JUMP JUMPDEST PUSH1 0x40 MLOAD DUP1 SWAP2 SUB SWAP1 REVERT JUMPDEST JUMP JUMPDEST PUSH0 DUP3 DUP3 MSTORE PUSH1 0x20 DUP3 ADD SWAP1 POP SWAP3 SWAP2 POP POP JUMP JUMPDEST PUSH32 0x4469646E27742073656E6420656E6E6F75676820657468657200000000000000 PUSH0 DUP3 ADD MSTORE POP JUMP JUMPDEST PUSH0 PUSH2 0xDE PUSH1 0x19 DUP4 PUSH2 0x9A JUMP JUMPDEST SWAP2 POP PUSH2 0xE9 DUP3 PUSH2 0xAA JUMP JUMPDEST PUSH1 0x20 DUP3 ADD SWAP1 POP SWAP2 SWAP1 POP JUMP JUMPDEST PUSH0 PUSH1 0x20 DUP3 ADD SWAP1 POP DUP2 DUP2 SUB PUSH0 DUP4 ADD MSTORE PUSH2 0x10B DUP2 PUSH2 0xD2 JUMP JUMPDEST SWAP1 POP SWAP2 SWAP1 POP JUMP INVALID LOG2 PUSH5 0x6970667358 0x22 SLT KECCAK256 POP 0xFB COINBASE SWAP7 REVERT 0xED 0xC3 0x4D XOR 0x2B 0xBE PUSH5 0x25812AD22F 0xF6 0xC5 SELFBALANCE CHAINID PUSH23 0x4C4926311A47F622A95064736F6C634300081A00330000 "
				},
				"gasEstimates": {
					"creation": {
						"codeDepositCost": "65600",
						"executionCost": "115",
						"totalCost": "65715"
					},
					"external": {
						"fund()": "425",
						"withdraw()": "121"
					}
				},
				"methodIdentifiers": {
					"fund()": "b60d4288",
					"withdraw()": "3ccfd60b"
				}
			},
			"storageLayout": {
				"storage": [],
				"types": null
			},
			"userdoc": {
				"kind": "user",
				"methods": {},
				"version": 1
			}
		}
	}
}