{
	"data": {
		"bytecode": {
			"linkReferences": {},
			"object": "6080604052674563918244f400005f553480156019575f80fd5b506105a5806100275f395ff3fe608060405260043610610049575f3560e01c8063098de8201461004d5780633ccfd60b146100775780636e5b6b281461008d57806398d5fdca146100c9578063b60d4288146100f3575b5f80fd5b348015610058575f80fd5b506100616100fd565b60405161006e9190610247565b60405180910390f35b348015610082575f80fd5b5061008b610102565b005b348015610098575f80fd5b506100b360048036038101906100ae919061028e565b610104565b6040516100c09190610247565b60405180910390f35b3480156100d4575f80fd5b506100dd61013c565b6040516100ea9190610247565b60405180910390f35b6100fb6101e1565b005b5f5481565b565b5f8061010e61013c565b90505f670de0b6b3a7640000848361012691906102e6565b6101309190610354565b90508092505050919050565b5f80735f4ec3df9cbd43714fe2740f5e3616155c5b841990505f8173ffffffffffffffffffffffffffffffffffffffff1663feaf968c6040518163ffffffff1660e01b815260040160a060405180830381865afa15801561019f573d5f803e3d5ffd5b505050506040513d601f19601f820116820180604052508101906101c3919061040a565b5050509150506402540be400816101da9190610481565b9250505090565b5f546101ec34610104565b101561022d576040517f08c379a000000000000000000000000000000000000000000000000000000000815260040161022490610551565b60405180910390fd5b565b5f819050919050565b6102418161022f565b82525050565b5f60208201905061025a5f830184610238565b92915050565b5f80fd5b61026d8161022f565b8114610277575f80fd5b50565b5f8135905061028881610264565b92915050565b5f602082840312156102a3576102a2610260565b5b5f6102b08482850161027a565b91505092915050565b7f4e487b71000000000000000000000000000000000000000000000000000000005f52601160045260245ffd5b5f6102f08261022f565b91506102fb8361022f565b92508282026103098161022f565b915082820484148315176103205761031f6102b9565b5b5092915050565b7f4e487b71000000000000000000000000000000000000000000000000000000005f52601260045260245ffd5b5f61035e8261022f565b91506103698361022f565b92508261037957610378610327565b5b828204905092915050565b5f69ffffffffffffffffffff82169050919050565b6103a281610384565b81146103ac575f80fd5b50565b5f815190506103bd81610399565b92915050565b5f819050919050565b6103d5816103c3565b81146103df575f80fd5b50565b5f815190506103f0816103cc565b92915050565b5f8151905061040481610264565b92915050565b5f805f805f60a0868803121561042357610422610260565b5b5f610430888289016103af565b9550506020610441888289016103e2565b9450506040610452888289016103f6565b9350506060610463888289016103f6565b9250506080610474888289016103af565b9150509295509295909350565b5f61048b826103c3565b9150610496836103c3565b92508282026104a4816103c3565b91507f800000000000000000000000000000000000000000000000000000000000000084145f841216156104db576104da6102b9565b5b82820584148315176104f0576104ef6102b9565b5b5092915050565b5f82825260208201905092915050565b7f4469646e27742073656e6420656e6e6f756768206574686572000000000000005f82015250565b5f61053b6019836104f7565b915061054682610507565b602082019050919050565b5f6020820190508181035f8301526105688161052f565b905091905056fea264697066735822122038324869cc60728bd88508384dfbfa378777976ee8462e6c5a345c367a99efe664736f6c634300081a0033",
			"opcodes": "PUSH1 0x80 PUSH1 0x40 MSTORE PUSH8 0x4563918244F40000 PUSH0 SSTORE CALLVALUE DUP1 ISZERO PUSH1 0x19 JUMPI PUSH0 DUP1 REVERT JUMPDEST POP PUSH2 0x5A5 DUP1 PUSH2 0x27 PUSH0 CODECOPY PUSH0 RETURN INVALID PUSH1 0x80 PUSH1 0x40 MSTORE PUSH1 0x4 CALLDATASIZE LT PUSH2 0x49 JUMPI PUSH0 CALLDATALOAD PUSH1 0xE0 SHR DUP1 PUSH4 0x98DE820 EQ PUSH2 0x4D JUMPI DUP1 PUSH4 0x3CCFD60B EQ PUSH2 0x77 JUMPI DUP1 PUSH4 0x6E5B6B28 EQ PUSH2 0x8D JUMPI DUP1 PUSH4 0x98D5FDCA EQ PUSH2 0xC9 JUMPI DUP1 PUSH4 0xB60D4288 EQ PUSH2 0xF3 JUMPI JUMPDEST PUSH0 DUP1 REVERT JUMPDEST CALLVALUE DUP1 ISZERO PUSH2 0x58 JUMPI PUSH0 DUP1 REVERT JUMPDEST POP PUSH2 0x61 PUSH2 0xFD JUMP JUMPDEST PUSH1 0x40 MLOAD PUSH2 0x6E SWAP2 SWAP1 PUSH2 0x247 JUMP JUMPDEST PUSH1 0x40 MLOAD DUP1 SWAP2 SUB SWAP1 RETURN JUMPDEST CALLVALUE DUP1 ISZERO PUSH2 0x82 JUMPI PUSH0 DUP1 REVERT JUMPDEST POP PUSH2 0x8B PUSH2 0x102 JUMP JUMPDEST STOP JUMPDEST CALLVALUE DUP1 ISZERO PUSH2 0x98 JUMPI PUSH0 DUP1 REVERT JUMPDEST POP PUSH2 0xB3 PUSH1 0x4 DUP1 CALLDATASIZE SUB DUP2 ADD SWAP1 PUSH2 0xAE SWAP2 SWAP1 PUSH2 0x28E JUMP JUMPDEST PUSH2 0x104 JUMP JUMPDEST PUSH1 0x40 MLOAD PUSH2 0xC0 SWAP2 SWAP1 PUSH2 0x247 JUMP JUMPDEST PUSH1 0x40 MLOAD DUP1 SWAP2 SUB SWAP1 RETURN JUMPDEST CALLVALUE DUP1 ISZERO PUSH2 0xD4 JUMPI PUSH0 DUP1 REVERT JUMPDEST POP PUSH2 0xDD PUSH2 0x13C JUMP JUMPDEST PUSH1 0x40 MLOAD PUSH2 0xEA SWAP2 SWAP1 PUSH2 0x247 JUMP JUMPDEST PUSH1 0x40 MLOAD DUP1 SWAP2 SUB SWAP1 RETURN JUMPDEST PUSH2 0xFB PUSH2 0x1E1 JUMP JUMPDEST STOP JUMPDEST PUSH0 SLOAD DUP2 JUMP JUMPDEST JUMP JUMPDEST PUSH0 DUP1 PUSH2 0x10E PUSH2 0x13C JUMP JUMPDEST SWAP1 POP PUSH0 PUSH8 0xDE0B6B3A7640000 DUP5 DUP4 PUSH2 0x126 SWAP2 SWAP1 PUSH2 0x2E6 JUMP JUMPDEST PUSH2 0x130 SWAP2 SWAP1 PUSH2 0x354 JUMP JUMPDEST SWAP1 POP DUP1 SWAP3 POP POP POP SWAP2 SWAP1 POP JUMP JUMPDEST PUSH0 DUP1 PUSH20 0x5F4EC3DF9CBD43714FE2740F5E3616155C5B8419 SWAP1 POP PUSH0 DUP2 PUSH20 0xFFFFFFFFFFFFFFFFFFFFFFFFFFFFFFFFFFFFFFFF AND PUSH4 0xFEAF968C PUSH1 0x40 MLOAD DUP2 PUSH4 0xFFFFFFFF AND PUSH1 0xE0 SHL DUP2 MSTORE PUSH1 0x4 ADD PUSH1 0xA0 PUSH1 0x40 MLOAD DUP1 DUP4 SUB DUP2 DUP7 GAS STATICCALL ISZERO DUP1 ISZERO PUSH2 0x19F JUMPI RETURNDATASIZE PUSH0 DUP1 RETURNDATACOPY RETURNDATASIZE PUSH0 REVERT JUMPDEST POP POP POP POP PUSH1 0x40 MLOAD RETURNDATASIZE PUSH1 0x1F NOT PUSH1 0x1F DUP3 ADD AND DUP3 ADD DUP1 PUSH1 0x40 MSTORE POP DUP2 ADD SWAP1 PUSH2 0x1C3 SWAP2 SWAP1 PUSH2 0x40A JUMP JUMPDEST POP POP POP SWAP2 POP POP PUSH5 0x2540BE400 DUP2 PUSH2 0x1DA SWAP2 SWAP1 PUSH2 0x481 JUMP JUMPDEST SWAP3 POP POP POP SWAP1 JUMP JUMPDEST PUSH0 SLOAD PUSH2 0x1EC CALLVALUE PUSH2 0x104 JUMP JUMPDEST LT ISZERO PUSH2 0x22D JUMPI PUSH1 0x40 MLOAD PUSH32 0x8C379A000000000000000000000000000000000000000000000000000000000 DUP2 MSTORE PUSH1 0x4 ADD PUSH2 0x224 SWAP1 PUSH2 0x551 JUMP JUMPDEST PUSH1 0x40 MLOAD DUP1 SWAP2 SUB SWAP1 REVERT JUMPDEST JUMP JUMPDEST PUSH0 DUP2 SWAP1 POP SWAP2 SWAP1 POP JUMP JUMPDEST PUSH2 0x241 DUP2 PUSH2 0x22F JUMP JUMPDEST DUP3 MSTORE POP POP JUMP JUMPDEST PUSH0 PUSH1 0x20 DUP3 ADD SWAP1 POP PUSH2 0x25A PUSH0 DUP4 ADD DUP5 PUSH2 0x238 JUMP JUMPDEST SWAP3 SWAP2 POP POP JUMP JUMPDEST PUSH0 DUP1 REVERT JUMPDEST PUSH2 0x26D DUP2 PUSH2 0x22F JUMP JUMPDEST DUP2 EQ PUSH2 0x277 JUMPI PUSH0 DUP1 REVERT JUMPDEST POP JUMP JUMPDEST PUSH0 DUP2 CALLDATALOAD SWAP1 POP PUSH2 0x288 DUP2 PUSH2 0x264 JUMP JUMPDEST SWAP3 SWAP2 POP POP JUMP JUMPDEST PUSH0 PUSH1 0x20 DUP3 DUP5 SUB SLT ISZERO PUSH2 0x2A3 JUMPI PUSH2 0x2A2 PUSH2 0x260 JUMP JUMPDEST JUMPDEST PUSH0 PUSH2 0x2B0 DUP5 DUP3 DUP6 ADD PUSH2 0x27A JUMP JUMPDEST SWAP2 POP POP SWAP3 SWAP2 POP POP JUMP JUMPDEST PUSH32 0x4E487B7100000000000000000000000000000000000000000000000000000000 PUSH0 MSTORE PUSH1 0x11 PUSH1 0x4 MSTORE PUSH1 0x24 PUSH0 REVERT JUMPDEST PUSH0 PUSH2 0x2F0 DUP3 PUSH2 0x22F JUMP JUMPDEST SWAP2 POP PUSH2 0x2FB DUP4 PUSH2 0x22F JUMP JUMPDEST SWAP3 POP DUP3 DUP3 MUL PUSH2 0x309 DUP2 PUSH2 0x22F JUMP JUMPDEST SWAP2 POP DUP3 DUP3 DIV DUP5 EQ DUP4 ISZERO OR PUSH2 0x320 JUMPI PUSH2 0x31F PUSH2 0x2B9 JUMP JUMPDEST JUMPDEST POP SWAP3 SWAP2 POP POP JUMP JUMPDEST PUSH32 0x4E487B7100000000000000000000000000000000000000000000000000000000 PUSH0 MSTORE PUSH1 0x12 PUSH1 0x4 MSTORE PUSH1 0x24 PUSH0 REVERT JUMPDEST PUSH0 PUSH2 0x35E DUP3 PUSH2 0x22F JUMP JUMPDEST SWAP2 POP PUSH2 0x369 DUP4 PUSH2 0x22F JUMP JUMPDEST SWAP3 POP DUP3 PUSH2 0x379 JUMPI PUSH2 0x378 PUSH2 0x327 JUMP JUMPDEST JUMPDEST DUP3 DUP3 DIV SWAP1 POP SWAP3 SWAP2 POP POP JUMP JUMPDEST PUSH0 PUSH10 0xFFFFFFFFFFFFFFFFFFFF DUP3 AND SWAP1 POP SWAP2 SWAP1 POP JUMP JUMPDEST PUSH2 0x3A2 DUP2 PUSH2 0x384 JUMP JUMPDEST DUP2 EQ PUSH2 0x3AC JUMPI PUSH0 DUP1 REVERT JUMPDEST POP JUMP JUMPDEST PUSH0 DUP2 MLOAD SWAP1 POP PUSH2 0x3BD DUP2 PUSH2 0x399 JUMP JUMPDEST SWAP3 SWAP2 POP POP JUMP JUMPDEST PUSH0 DUP2 SWAP1 POP SWAP2 SWAP1 POP JUMP JUMPDEST PUSH2 0x3D5 DUP2 PUSH2 0x3C3 JUMP JUMPDEST DUP2 EQ PUSH2 0x3DF JUMPI PUSH0 DUP1 REVERT JUMPDEST POP JUMP JUMPDEST PUSH0 DUP2 MLOAD SWAP1 POP PUSH2 0x3F0 DUP2 PUSH2 0x3CC JUMP JUMPDEST SWAP3 SWAP2 POP POP JUMP JUMPDEST PUSH0 DUP2 MLOAD SWAP1 POP PUSH2 0x404 DUP2 PUSH2 0x264 JUMP JUMPDEST SWAP3 SWAP2 POP POP JUMP JUMPDEST PUSH0 DUP1 PUSH0 DUP1 PUSH0 PUSH1 0xA0 DUP7 DUP9 SUB SLT ISZERO PUSH2 0x423 JUMPI PUSH2 0x422 PUSH2 0x260 JUMP JUMPDEST JUMPDEST PUSH0 PUSH2 0x430 DUP9 DUP3 DUP10 ADD PUSH2 0x3AF JUMP JUMPDEST SWAP6 POP POP PUSH1 0x20 PUSH2 0x441 DUP9 DUP3 DUP10 ADD PUSH2 0x3E2 JUMP JUMPDEST SWAP5 POP POP PUSH1 0x40 PUSH2 0x452 DUP9 DUP3 DUP10 ADD PUSH2 0x3F6 JUMP JUMPDEST SWAP4 POP POP PUSH1 0x60 PUSH2 0x463 DUP9 DUP3 DUP10 ADD PUSH2 0x3F6 JUMP JUMPDEST SWAP3 POP POP PUSH1 0x80 PUSH2 0x474 DUP9 DUP3 DUP10 ADD PUSH2 0x3AF JUMP JUMPDEST SWAP2 POP POP SWAP3 SWAP6 POP SWAP3 SWAP6 SWAP1 SWAP4 POP JUMP JUMPDEST PUSH0 PUSH2 0x48B DUP3 PUSH2 0x3C3 JUMP JUMPDEST SWAP2 POP PUSH2 0x496 DUP4 PUSH2 0x3C3 JUMP JUMPDEST SWAP3 POP DUP3 DUP3 MUL PUSH2 0x4A4 DUP2 PUSH2 0x3C3 JUMP JUMPDEST SWAP2 POP PUSH32 0x8000000000000000000000000000000000000000000000000000000000000000 DUP5 EQ PUSH0 DUP5 SLT AND ISZERO PUSH2 0x4DB JUMPI PUSH2 0x4DA PUSH2 0x2B9 JUMP JUMPDEST JUMPDEST DUP3 DUP3 SDIV DUP5 EQ DUP4 ISZERO OR PUSH2 0x4F0 JUMPI PUSH2 0x4EF PUSH2 0x2B9 JUMP JUMPDEST JUMPDEST POP SWAP3 SWAP2 POP POP JUMP JUMPDEST PUSH0 DUP3 DUP3 MSTORE PUSH1 0x20 DUP3 ADD SWAP1 POP SWAP3 SWAP2 POP POP JUMP JUMPDEST PUSH32 0x4469646E27742073656E6420656E6E6F75676820657468657200000000000000 PUSH0 DUP3 ADD MSTORE POP JUMP JUMPDEST PUSH0 PUSH2 0x53B PUSH1 0x19 DUP4 PUSH2 0x4F7 JUMP JUMPDEST SWAP2 POP PUSH2 0x546 DUP3 PUSH2 0x507 JUMP JUMPDEST PUSH1 0x20 DUP3 ADD SWAP1 POP SWAP2 SWAP1 POP JUMP JUMPDEST PUSH0 PUSH1 0x20 DUP3 ADD SWAP1 POP DUP2 DUP2 SUB PUSH0 DUP4 ADD MSTORE PUSH2 0x568 DUP2 PUSH2 0x52F JUMP JUMPDEST SWAP1 POP SWAP2 SWAP1 POP JUMP INVALID LOG2 PUSH5 0x6970667358 0x22 SLT KECCAK256 CODESIZE ORIGIN BASEFEE PUSH10 0xCC60728BD88508384DFB STATICCALL CALLDATACOPY DUP8 PUSH24 0x976EE8462E6C5A345C367A99EFE664736F6C634300081A00 CALLER "
		},
		"gasEstimates": {
			"creation": {
				"codeDepositCost": "289000",
				"executionCost": "22434",
				"totalCost": "311434"
			},
			"external": {
				"fund()": "infinite",
				"getConversionRate(uint256)": "infinite",
				"getPrice()": "infinite",
				"minimumUsd()": "2402",
				"withdraw()": "143"
			}
		},
		"methodIdentifiers": {
			"fund()": "b60d4288",
			"getConversionRate(uint256)": "6e5b6b28",
			"getPrice()": "98d5fdca",
			"minimumUsd()": "098de820",
			"withdraw()": "3ccfd60b"
		}
	},
	"abi": [
		{
			"inputs": [],
			"name": "fund",
			"outputs": [],
			"stateMutability": "payable",
			"type": "function"
		},
		{
			"inputs": [
				{
					"internalType": "uint256",
					"name": "ethAmount",
					"type": "uint256"
				}
			],
			"name": "getConversionRate",
			"outputs": [
				{
					"internalType": "uint256",
					"name": "",
					"type": "uint256"
				}
			],
			"stateMutability": "view",
			"type": "function"
		},
		{
			"inputs": [],
			"name": "getPrice",
			"outputs": [
				{
					"internalType": "uint256",
					"name": "",
					"type": "uint256"
				}
			],
			"stateMutability": "view",
			"type": "function"
		},
		{
			"inputs": [],
			"name": "minimumUsd",
			"outputs": [
				{
					"internalType": "uint256",
					"name": "",
					"type": "uint256"
				}
			],
			"stateMutability": "view",
			"type": "function"
		},
		{
			"inputs": [],
			"name": "withdraw",
			"outputs": [],
			"stateMutability": "nonpayable",
			"type": "function"
		}
	]
}